:020000040800F2
:1000000030040020D900000827020008230200085D
:1000100000000000000000000000000000000000E0
:100020000000000000000000000000008D04000837
:100030000000000000000000C30300085505000890
:10004000EB000008EB00000800000000EB000008D7
:10005000EB000008EB000008EB000008EB000008D4
:100060000000000000000000000000000000000090
:10007000EB000008EB000008EB00000800000000A7
:10008000EB0000080000000000000000EB0000088A
:10009000000000000000000000000000EB0000086D
:1000A00000000000EB000008000000004507000809
:1000B0002909000800000000000000000000000006
:1000C0000448854600F02CF8004800471B10000843
:1000D000C046C0463004002004488047044800471A
:1000E000FEE7FEE7FEE7FEE7FEE7FEE76D05000838
:1000F000C100000830B50B46014600202022012433
:1001000009E00D46D5409D4205D31D469540491B4B
:100110002546954040191546521E002DF1DC30BD94
:10012000064C0125064E05E0E36807CC2B430C3C4A
:1001300098471034B442F7D3FFF7C6FF28100008E1
:1001400048100008F8B50246CD782F073F0FCD784C
:1001500010263540002D01D08D782F431446002005
:1001600011E085062B0E0D88012686403540002DB6
:1001700007D025680F269E40B5433E469E40354336
:100180002560451CE8B20828EBDB141D0D882D12F4
:100190000095002011E085062B0E01258540009E6C
:1001A0003540002D07D025680F269E40B5433E46BA
:1001B0009E4035432560451CE8B20828EBDBCD782E
:1001C000282D04D155690E883543556106E0CD7858
:1001D000482D03D115690E8835431561F8BD70B5FA
:1001E0004D07EB0E082902DA0546203501E00546E9
:1001F00024352C460F269E402568B54316469E4062
:100200003543256070BD0021C94301800321817001
:100210000421C1707047002A01D0016100E04161F2
:10022000704700BFFEE770478178002925D0174945
:1002300003221202891802789210920089580278DB
:100240009207D30EFF229A40914342789207120EF2
:1002500003789B07DB0E9A4011430C4A03231B02D1
:10026000D21803789B109B00D1500178CA06D20E99
:1002700001219140054A116007E00178CA06D20EBB
:1002800001219140014A80321160704700E100E095
:1002900010B500F003F800F02BF810BD3EB568462D
:1002A00000F0B0F87D21C9000198FFF723FF044654
:1002B000601E0D49884201D901200CE0601E0B49E7
:1002C00048610321081F00F05DFE00200749886196
:1002D000072008610020002801D000BFFEE70021B0
:1002E000481E00F04FFE3EBDFFFFFF0000E000E0B3
:1002F00008B50121480400F065F80021084600F027
:100300001FF80021012000F01BF80021022000F05E
:1003100017F80021032000F013F86846FFF773FF79
:10032000064968460180032181701021C170694629
:100330000920C006FFF706FF08BD0000608400002A
:1003400070B505460C46002D06D0012D11D0022DAA
:100350001CD0032D32D125E0012C01D0012000E07A
:10036000002002460121C9030920C006FFF753FF00
:1003700025E0012C01D0012000E0002002460121EF
:1003800089020920C006FFF746FF18E0012C01D0C2
:10039000012000E00020024640210920C006FFF7AE
:1003A0003AFF0CE0012C01D0012000E000200246C1
:1003B00020210920C006FFF72EFF00E000BF00BF8C
:1003C00070BD7047002905D0054A52690243044BAD
:1003D0005A6104E0024A52698243014B5A617047F4
:1003E00000100240002905D0054AD2690243044B9F
:1003F000DA6104E0024AD2698243014BDA61704754
:100400000010024010B5002100221A4B5B680C243A
:1004100023401946002906D0042907D0082908D00E
:100420000C290CD108E0144B03600BE0124B036065
:1004300008E0124B036005E0114B036002E00E4B35
:10044000036000BF00BF0B4B5B68F0242340190919
:100450000C4B5A5C0368D3404360064B5B6807242F
:1004600024022340190A084B5A5C4368D340836036
:1004700010BD00000010024000127A00006CDC0287
:10048000409C000004000020140000207047000081
:100490001CB500200190012000900024284800682D
:1004A000012108432649086000BF25480068022151
:1004B00008400028F9D023482349086023480068F1
:1004C000C008C000214908600846006810210843A0
:1004D0001E4908601C490968481E1D49FFF70AFEAD
:1004E0000446012C00D9012418480068204317490C
:1004F000086013484468F02120468843044600BF42
:100500000F48446044680721090220468843044696
:1005100000BF0B484460406880088000084948607C
:1005200008464068022108430549486000E000BFD2
:10053000034840680C2108400828F8D11CBD000081
:1005400000100240006CDC021C0000200020024071
:1005500000366E0104480068002804D00248006894
:10056000401E0149086070470000002010B50D488A
:100570000068012108430B490860084640680A49A1
:10058000084008494860084600680121090488437A
:10059000044908600020C043886000208860FFF79D
:1005A00077FF10BD001002400CF8FFF810B50246AE
:1005B0000B460024002103E0505C0419481C81B262
:1005C0009942F9DBE0B210BD014608784A78120280
:1005D00010437047014608784A78120210438A781F
:1005E000120410437047014608784A7812021043FB
:1005F0008A7812041043CA781206104370470B8899
:10060000FF2B04D20B88C2540B885B1C0B807047F5
:10061000F7B5074614462546002D06DA2D22384642
:100620000199FFF7ECFF6E4200E02E463246384655
:10063000019900F05AF8FEBD70B505460E46144605
:10064000002C00D170BD05E0227831462846FFF726
:10065000D6FF641C20780028F6D100BFF2E7F7B57A
:1006600082B006461446002C08DA2D223046039943
:10067000FFF7C5FF601C4042451C00E02546642191
:100680002846FFF737FD019064212846FFF732FD29
:1006900000913046019A039900F027F82E22304647
:1006A0000399FFF7ACFF0A210098FFF723FD3030D4
:1006B000C7B23A4630460399FFF7A1FF0A210098D6
:1006C000FFF718FD0F4630373A4630460399FFF7DB
:1006D00096FF05B0F0BD70B504460D46164632468D
:1006E0002946204600F001F870BDFEB506460F46CB
:1006F00015460024002D05D1302239463046FFF73B
:100700007EFFFEBD0DE00A212846FFF7F3FC3031E5
:1007100068460155601CC4B20A212846FFF7EAFC6E
:100720000546002D01D00A2CEDDB07E0601EC4B2A7
:100730006846025D39463046FFF761FF002CF5D16F
:1007400000BFDEE710B5FF2101312C4800F0E2FACE
:10075000002805D10121294800F0DCFA002802D048
:10076000264800F0ABFB2021244800F0D3FA0028F3
:1007700025D0224800F0A2FBC4B22148007900280D
:100780001DD11F484188008881420ADA1C484088F0
:100790001C490C541A484088401C81B218484180BA
:1007A0000DE00121164841710171002220211348FA
:1007B00000F0E3FA00221021104800F0DEFA1021C8
:1007C0000E4800F0A7FA002817D00C4800F076FB7E
:1007D0000B480079002810D10948408800280CD027
:1007E00001210748017100222021044800F0C5FAC8
:1007F00000221021014800F0C0FA10BD003801406D
:10080000200100202000002010B588B004460121FE
:100810004804FFF7D7FD01210804FFF7E3FD01229B
:100820000C210920C006FFF7DAFC07A8FFF7EBFC54
:100830000121090368468183032181771821C1774B
:1008400007A90920C006FFF77DFC0122032109202A
:10085000C006FFF7C4FC07A8FFF7D5FC08216846CF
:100860008183032181774821C17707A90920C00628
:10087000FFF768FC01A800F02AFB01940020029019
:10088000039004900C20059001A90E4800F08CFA0A
:10089000012211020B4800F070FA012211460948AA
:1008A00000F06BFA1B216846017600214176012198
:1008B000817606A8FFF7B8FC0121024800F01CFA77
:1008C00008B010BD0038014070B50446FF2C00D9B7
:1008D000FF24002504E0002010494855681C85B21B
:1008E000A542F8DB0E48048000214180017141716E
:1008F0000C4800F0E3FA20210A4800F0FAF9202120
:10090000084800F0F3F901222021064800F035FAEA
:1009100001221021034800F030FA70BD20000020B1
:10092000200100200038014010B580211E4800F051
:10093000F1F9002820D01D484188008881420CDA56
:100940001A4840881A4A115C174800F0BCFA174848
:100950004088401C81B21548418014484188008875
:10096000814209DB002280210F4800F006FA0122B3
:1009700040210D4800F001FA40210B4800F0CAF96F
:10098000002810D04021084800F0B3F9002240218F
:10099000054800F0F2F9002201210648FFF73BFC70
:1009A00001210248017110BD0044004026020020D0
:1009B000260100200004004810B5C2B00446002003
:1009C0000190002C01D142B010BD3DA201A902A8A6
:1009D000FFF732FE228801A902A8FFF77CFE3DA2A4
:1009E00001A902A8FFF728FE628801A902A8FFF763
:1009F00072FE3DA201A902A8FFF71EFE01A902A8EE
:100A00006268FFF772FE3DA201A902A8FFF714FE7B
:100A1000228901A902A8FFF75EFE3DA201A902A852
:100A2000FFF70AFE628901A902A8FFF754FE3DA262
:100A300001A902A8FFF700FE01A902A8E268FFF7DA
:100A400054FE3DA201A902A8FFF7F6FD228A01A9E2
:100A500002A8FFF740FE3DA201A902A8FFF7ECFDA6
:100A600001A902A86269FFF7FAFD3DA201A902A847
:100A7000FFF7E2FD3BA201A902A8FFF7DDFD182266
:100A8000A25E01A902A8FFF7C3FD3BA201A902A82B
:100A9000FFF7D2FD39A201A902A8FFF7CDFDA27E82
:100AA00001A902A8FFF717FE39A201A902A8FFF7C2
:100AB000C3FD6846818802A800F0E2F800BF82E723
:100AC0000D0A6E6F726D5F746F66202020203D20CE
:100AD000000000000D0A6E6F726D5F7065616B2023
:100AE00020203D20000000000D0A6E6F726D5F6EC9
:100AF0006F69736520203D20000000000D0A6D75B0
:100B00006C7473686F74202020203D20000000006A
:100B10000D0A617474656E5F7065616B20203D2005
:100B2000000000000D0A617474656E5F6E6F69737A
:100B300065203D20000000000D0A7265665F746F3D
:100B40006620202020203D20000000000D0A746552
:100B50006D7065726174757265203D200000000043
:100B6000204300000D0A63616C5F746F66202020D3
:100B700020203D2000000000206D6D000D0A636FF5
:100B80006E666964656E636520203D20000000008C
:100B90000D0A000010B588B0044601214804FFF793
:100BA00011FC01218804FFF70DFC01214804FFF727
:100BB00019FC022201210920C006FFF710FB07A83B
:100BC000FFF721FB022168468183032181771821E9
:100BD000C17707A90920C006FFF7B4FA0222012154
:100BE0002548FFF7FCFA07A8FFF70DFB022168462E
:100BF0008183032181774821C17707A91E48FFF728
:100C0000A1FA07A8FFF7FFFA0121684681830321B3
:100C100081771021C17707A91748FFF793FA0022BF
:100C200001211548FFF7F7FA01A800F050F90194E7
:100C300000200290039004900C20059001A90F4819
:100C400000F0B2F8002280210C4800F096F8002253
:100C500040210A4800F091F81C21684601760121E4
:100C60004176817606A8FFF7DFFA0121034800F0FC
:100C700043F808B010BD00000004004800440040E4
:100C800070B506460C46002E01D0002C00D170BD78
:100C9000FF2C00D9FF2400BF104800790028FBD0AA
:100CA000002504E0705D0E494855681C85B2A542D8
:100CB000F8DB0A4804800021418001714021094885
:100CC00000F017F8012211460748FFF7A4FA0122A5
:100CD0008021044800F051F800BFD8E72602002028
:100CE000260100200044004000040048CA4302607E
:100CF0007047CA4302607047002905D0C2680123CB
:100D00005B031A43C26004E0C26801235B039A4399
:100D1000C260704710B502460020102904D1136844
:100D200010242340180927E0202904D11368202427
:100D30002340580920E0402904D11368402423406F
:100D4000980919E0802904D1136880242340D80928
:100D500012E0FF230133994203D11368D807C00F73
:100D60000AE0012908D113680E242340002B01D08A
:100D7000012300E00023184610BD012909D1002AF3
:100D800003D043690B4343610CE043698B434361E8
:100D900008E0002A03D0C3680B43C36002E0C368C5
:100DA0008B43C36070470000FEB504460D46002625
:100DB000E06803214902884303225202E968114096
:100DC0000843E060E068012109038843012212031F
:100DD000696811400843E060E0680C2188430C22F8
:100DE000296911400843E06020699102884392021A
:100DF000A9681140084320616846FFF703FB0E48CD
:100E0000844202D00D48844200D1029EA068000DA9
:100E10000005A06030092968FFF76CF90001A1689E
:100E20000843A06030462968FFF764F90007000F07
:100E3000A1680843A060FEBD0038014000440040A6
:100E400090B000211A48017101211A480171E12076
:100E5000C002FFF7D9FCE1204002FFF79BFE2020F3
:100E6000FFF732FD23E01248007900281FD0104818
:100E700045884679202D01D920250126002405E04A
:100E80000D48005D08A90855601C84B2AC42F7DB30
:100E90002020FFF719FD002E09D101AA294608A834
:100EA00000F01FF8002802D001A8FFF785FDDAE75F
:100EB0002001002026020020200000200146486872
:100EC000C005C00D7047CA05D20D426070474B2166
:100ED000C9010160002141608160C1600C21016194
:100EE000704770B504460E461546002C01D0002D03
:100EF00001D1002070BD1B2E01D00020FAE7207820
:100F00005A2805D160788E2802D1A078172801D000
:100F10000020EFE71A212046FFF748FBA17E884218
:100F200001D00020E6E7E01CFFF74EFB2880601DA3
:100F3000FFF74AFB6880E01DFFF74CFB6860204626
:100F40000A30FFF741FB288120460C30FFF73CFBBD
:100F5000688120460E30FFF73DFBE86020461130E7
:100F6000FFF732FB288220461330FFF73CFB686115
:100F700020461730FFF728FB00B22883607EA87652
:100F80000120B7E710B5002819DB1A4A03231B021A
:100F9000D21883089B00D2588307DC0EFF23A3409E
:100FA0009A438B071B0E8407E40EA3401A43114B90
:100FB000032424021B198408A4001A5118E00E4AC5
:100FC00003071B0F083B9B089B00D2588307DC0ECE
:100FD000FF23A3409A438B071B0E8407E40EA34014
:100FE0001A43054B0407240F083CA408A4001A5117
:100FF00010BD000000E100E01CED00E002E008C8C8
:10100000121F08C1002AFAD170477047002001E082
:1010100001C1121F002AFBD17047FFF739F9FFF712
:101020000FFF00BFFEE7000048100008000000208E
:1010300020000000FC0F00086810000820000020BD
:10104000100400000C100008000000000000000068
:101050000000000001020304060708090000000068
:0810600001020304006CDC0234
:04000005080000C12E
:00000001FF
