:020000040800F2
:1000000080040020D90000085D02000859020008A1
:1000100000000000000000000000000000000000E0
:10002000000000000000000000000000BD04000807
:100030000000000000000000F30300088505000830
:10004000EB000008EB00000800000000EB000008D7
:10005000EB000008EB000008EB000008EB000008D4
:100060000000000000000000000000000000000090
:10007000EB000008EB000008EB00000800000000A7
:10008000EB0000080000000000000000EB0000088A
:10009000000000000000000000000000EB0000086D
:1000A00000000000EB000008000000001D06000832
:1000B000EB0000080000000000000000000000004D
:1000C0000448854600F03EF800480047BF0F00088E
:1000D000C046C046800400200448804704480047CA
:1000E000FEE7FEE7FEE7FEE7FEE7FEE79D05000808
:1000F000C100000830B50B46014600202022012433
:1001000009E00D46D5409D4205D31D469540491B4B
:100110002546954040191546521E002DF1DC30BD94
:1001200003460B439B0703D009E008C9121F08C010
:10013000042AFAD203E00B780370401C491C521EBB
:10014000F9D27047064C0125064E05E0E36807CC5E
:100150002B430C3C98471034B442F7D3FFF7B4FF5D
:100160001C1000083C100008F8B50246CD782F0797
:100170003F0FCD7810263540002D01D08D782F43CC
:100180001446002011E085062B0E0D8801268640BE
:100190003540002D07D025680F269E40B5433E46CA
:1001A0009E4035432560451CE8B20828EBDB141D52
:1001B0000D882D120095002011E085062B0E0125DB
:1001C0008540009E3540002D07D025680F269E40B3
:1001D000B5433E469E4035432560451CE8B208289D
:1001E000EBDBCD78282D04D155690E883543556158
:1001F00006E0CD78482D03D115690E883543156189
:10020000F8BD70B54D07EB0E082902DA054620351A
:1002100001E0054624352C460F269E402568B5434F
:1002200016469E403543256070BD024690680840E2
:10023000002801D0012070470020FCE70021C943BD
:100240000180032181700421C1707047002A01D010
:10025000016100E04161704700BFFEE770470000A8
:100260008178002925D017490322120289180278C3
:1002700092109200895802789207D30EFF229A407A
:10028000914342789207120E03789B07DB0E9A4047
:1002900011430C4A03231B02D21803789B109B00C6
:1002A000D1500178CA06D20E01219140054A116051
:1002B00007E00178CA06D20E01219140014A80323E
:1002C0001160704700E100E010B500F03DF800F06B
:1002D00001F810BD08B50121480400F08BF868460C
:1002E000FFF7ACFF4321490268460180032181707A
:1002F0001021C17069460920C006FFF735FF0022B2
:10030000012189020920C006FFF7A0FF0022012178
:1003100049020920C006FFF799FF0122D1030920F5
:10032000C006FFF793FF6846FFF788FFFF21813182
:1003300068460180032181704821C1706946092007
:10034000C006FFF711FF08BD3EB5684600F072F821
:100350007D21C9000198FFF7CDFE0446601E0D49BE
:10036000884201D901200CE0601E0B49486103213D
:10037000081F00F0D9FD00200749886107200861A7
:100380000020002801D000BFFEE70021481E00F039
:10039000CBFD3EBDFFFFFF0000E000E070B505466D
:1003A0000C46002D06D0012D11D0022D1DD0032D9D
:1003B0001AD11BE0012C01D1012000E000200246EF
:1003C000012189020920C006FFF740FF0FE0012C40
:1003D00001D1012000E0002002460121490209204C
:1003E000C006FFF733FF02E000BF00BF00BF00BF41
:1003F00070BD7047002905D0054A52690243044B7D
:100400005A6104E0024A52698243014B5A617047C3
:1004100000100240002905D0054AD2690243044B6E
:10042000DA6104E0024AD2698243014BDA61704723
:100430000010024010B5002100221A4B5B680C240A
:1004400023401946002906D0042907D0082908D0DE
:100450000C290CD108E0144B03600BE0124B036035
:1004600008E0124B036005E0114B036002E00E4B05
:10047000036000BF00BF0B4B5B68F02423401909E9
:100480000C4B5A5C0368D3404360064B5B680724FF
:1004900024022340190A084B5A5C4368D340836006
:1004A00010BD00000010024000127A00006CDC0257
:1004B000409C000018000020280000207047000029
:1004C0001CB50020019001200090002428480068FD
:1004D000012108432649086000BF25480068022121
:1004E00008400028F9D023482349086023480068C1
:1004F000C008C00021490860084600681021084370
:100500001E4908601C490968481E1D49FFF7F2FD95
:100510000446012C00D901241848006820431749DB
:10052000086013484468F02120468843044600BF11
:100530000F48446044680721090220468843044666
:1005400000BF0B484460406880088000084948604C
:1005500008464068022108430549486000E000BFA2
:10056000034840680C2108400828F8D11CBD000051
:1005700000100240006CDC0230000020002002402D
:1005800000366E0104480068002804D00248006864
:10059000401E0149086070471400002010B50D4846
:1005A0000068012108430B490860084640680A4971
:1005B000084008494860084600680121090488434A
:1005C000044908600020C043886000208860FFF76D
:1005D00077FF10BD001002400CF8FFF80A4A51885E
:1005E0001E2900D91E21002005E0084A125C084B94
:1005F0001A54421C90B28842F7DB064A1180024A24
:100600005279054B1A7070473401002034000020E5
:1006100040020020100000201200002010B500242D
:10062000FF2101312B4800F0CAFA002805D1012131
:10063000284800F0C4FA002802D0264800F0DEFB6B
:100640002021244800F0BBFA002824D0214800F0E3
:10065000D5FBC4B22048007900281CD11E4841882F
:100660000088814209DA1C494888411C8AB21A492B
:100670004A80FF3901390C540DE0012116484171BF
:10068000017100222021134800F0CCFA0022102131
:10069000104800F0C7FA10210E4800F090FA002828
:1006A00017D00C4800F0AAFB0B480079002810D1A5
:1006B0000948408800280CD0012107480171002218
:1006C0002021044800F0AEFA00221021014800F079
:1006D000A9FA10BD003801403401002010B50122F4
:1006E00011460248FFF7B2FD10BD000000040048AB
:1006F00000B587B001214804FFF77CFE0121880482
:10070000FFF778FE022201210920C006FFF779FDDC
:1007100006A8FFF793FD0221684601830321817635
:100720001821C17606A90920C006FFF71DFD022287
:1007300001211F48FFF765FD06A8FFF77FFD022195
:1007400068460183032181764821C17606A91848AD
:10075000FFF70AFD06A8FFF771FD01216846018336
:10076000032181761021C17606A91148FFF7FCFC10
:10077000002201210E48FFF769FD01214804FFF71F
:1007800049FE01A800F074FBE12040020190002026
:100790000290039004900C20059001A9054800F0F8
:1007A00057FA0121034800F093F907B000BD00009B
:1007B000000400480044004010B500BF4021054837
:1007C00000F0F4F90028F9D0002201210248FFF7D7
:1007D0003DFD10BD004400400004004810B5FFF787
:1007E0007DFF3248007800280FD131A000F0FFF8DB
:1007F00037A000F0FCF83848008800F035F937A041
:1008000000F0F5F8FFF7D8FF10BD35A000F0EFF8C5
:100810003849088800F028F937A000F0E8F8354991
:10082000488800F021F939A000F0E1F83149486822
:1008300000F020F93AA000F0DAF82E49088900F01B
:1008400013F93CA000F0D3F82A49488900F00CF9CC
:100850003DA000F0CCF82749C86800F00BF93FA094
:1008600000F0C5F82349088A00F0FEF840A000F027
:10087000BEF82049486900F0C5F842A000F0B7F87A
:100880001C491820085E00F0A3F843A000F0AFF860
:1008900042A000F0ACF81749887E00F0E5F80FA000
:1008A00000F0A5F8FFF788FF00BFADE713000020B8
:1008B0000D0A5B544F465D204E6F2076616C696473
:1008C00020706172736564206672616D650D0A0047
:1008D0004C454E203D200000100000200D0A000075
:1008E0000D0A6E6F726D5F746F66202020203D20B0
:1008F00000000000600200200D0A6E6F726D5F70D4
:1009000065616B2020203D20000000000D0A6E6F05
:10091000726D5F6E6F69736520203D2000000000DE
:100920000D0A6D756C7473686F74202020203D2053
:10093000000000000D0A617474656E5F7065616B84
:1009400020203D20000000000D0A617474656E5F78
:100950006E6F697365203D20000000000D0A72650E
:10096000665F746F6620202020203D20000000007C
:100970000D0A74656D7065726174757265203D2035
:10098000000000000D0A63616C5F746F6620202018
:1009900020203D2000000000206D6D000D0A636FD7
:1009A0006E666964656E636520203D20000000006E
:1009B00010B504462146054800F056FA00BF402114
:1009C000024800F0F3F80028F9D010BD00440040C0
:1009D00010B50446002C06DA2D20FFF7E9FF60422F
:1009E00000F048F802E0204600F044F810BD10B5D1
:1009F000044603E02078FFF7DBFF641C2078002822
:100A0000F8D110BDF8B50446002C06DA2D20FFF70A
:100A1000CFFF601C45426D1C00E02546642128463E
:100A2000FFF768FB064600F025F82E20FFF7C0FF11
:100A30000A212846FFF75EFB07460A21FFF75AFB0B
:100A40000E4630363046FFF7B3FF0A212846FFF73F
:100A500051FB0E4630363046FFF7AAFF01A0FFF7E4
:100A6000C6FFF8BD2043000010B50446204600F044
:100A700001F810BD3EB505460024002D03D13020FD
:100A8000FFF796FF3EBD0EE00A212846FFF732FB36
:100A900030312046621CD4B26A4611540A212846DD
:100AA000FFF728FB0546002D01D00A2CECD305E00A
:100AB000601EC4B26946085DFFF77AFF002CF7D1CB
:100AC00000BFDFE7CA4302607047CA430260704755
:100AD000002905D0C26801235B031A43C26004E009
:100AE000C26801235B039A43C260704710B588B0A7
:100AF00004461B216846017601214176817606A8CD
:100B0000FFF7AEFB01214804FFF774FC01220C2122
:100B10000920C006FFF775FB07A8FFF78FFB01212F
:100B2000090368468183032181771821C17707A9CA
:100B30000920C006FFF718FB012203210920C00687
:100B4000FFF75FFB07A8FFF779FB08216846818361
:100B5000032181774821C17707A90920C006FFF743
:100B600003FB01210804FFF755FC01A800F080F900
:100B7000019400200290039004900C20059001A99C
:100B8000094800F065F801221102074800F04AF810
:100B900001221146044800F045F801210248FFF700
:100BA00097FF08B010BD00000038014002461068F1
:100BB0000840002801D0012070470020FCE710B554
:100BC00002460020102904D113681024234018097C
:100BD00027E0202904D1136820242340580920E06D
:100BE000402904D1136840242340980919E0802942
:100BF00004D1136880242340D80912E0FF23013375
:100C0000994203D11368D807C00F0AE0012908D11F
:100C100013680E242340002B01D0012300E00023A1
:100C2000184610BD012909D1002A03D043690B439E
:100C300043610CE043698B43436108E0002A03D021
:100C4000C3680B43C36002E0C3688B43C360704753
:100C5000FEB504460D460026E0680321490288439C
:100C600003225202E96811400843E060E068012174
:100C70000903884301221203696811400843E060B8
:100C8000E0680C2188430C22296911400843E06088
:100C90002069910288439202A968114008432061AB
:100CA0006846FFF7C7FB0E48844202D00D488442D5
:100CB00000D1029EA068000D0005A06030092968DF
:100CC000FFF718FA0001A1680843A06030462968C0
:100CD000FFF710FA0007000FA1680843A060FEBDEF
:100CE000003801400044004088B00024E120C002E8
:100CF000FFF7FCFEFFF7FCFC0021364801710121E3
:100D0000354801711E2000F07FF800210846FFF7EA
:100D100045FB00210120FFF741FB5AE02D480079F7
:100D2000002848D02B4840882C490880FFF756FC03
:100D300028484079002829D12648418801AAFF384F
:100D4000013800F09FF8002820D01C2201A9244877
:100D5000FFF7E6F90120234908706846808B224995
:100D600008806846807F214908700120204908706A
:100D700020480068401C1F49086001210020FFF73F
:100D80000DFB00210120FFF709FB11E000201549B0
:100D900008701749087018480068401C1649086018
:100DA00000210846FFF7FAFA01210846FFF7F6FA94
:100DB0001E2000F029F880210920C006FFF735FA2F
:100DC000002805D1002C04D10124FFF707FD00E025
:100DD0000024A3E7340100203A0200200400002090
:100DE000600200201300002000000020020000200C
:100DF00003000020080000200C0000200146486885
:100E0000C005C00D7047000070B50446FF2C00D926
:100E1000FF24002504E0002010494855681C85B2D5
:100E2000A542F8DB0E480480002141800171417128
:100E30000C48FFF7E3FF20210A48FFF746FE202178
:100E40000848FFF73FFE012220210648FFF7EAFE8F
:100E5000012210210348FFF7E5FE70BD3400002099
:100E60003401002000380140CA05D20D42607047AD
:100E70004B21C9010160002141608160C1600C21EA
:100E80000161704770B504460E461546002C01D02E
:100E9000002D01D1002070BD1B2E01D00020FAE7EB
:100EA00020785A2805D160788E2802D1A07817289A
:100EB00001D00020EFE71A21204600F0A1F8A17E22
:100EC000884201D00020E6E7E01C00F07EF8288090
:100ED000601D00F07AF86880E01D00F07CF8686022
:100EE00020460A3000F071F8288120460C3000F0CE
:100EF0006CF8688120460E3000F06DF8E8602046FE
:100F0000113000F062F828822046133000F06CF8AF
:100F100068612046173000F058F800B22883607EE0
:100F2000A8760120B7E7000010B5002819DB1A4A9F
:100F300003231B02D21883089B00D2588307DC0EC0
:100F4000FF23A3409A438B071B0E8407E40EA340A4
:100F50001A43114B032424021B198408A4001A51BC
:100F600018E00E4A03071B0F083B9B089B00D25852
:100F70008307DC0EFF23A3409A438B071B0E8407D5
:100F8000E40EA3401A43054B0407240F083CA408B1
:100F9000A4001A5110BD000000E100E01CED00E0CB
:100FA00002E008C8121F08C1002AFAD17047704732
:100FB000002001E001C1121F002AFBD17047FFF79A
:100FC00083F9FFF791FE00BFFEE7014608784A78F3
:100FD000120210437047014608784A781202104303
:100FE0008A78120410437047014608784A78120242
:100FF00010438A7812041043CA78120610437047CF
:1010000010B502460B460024002103E0505C041991
:10101000481C81B29942F9DBE0B210BD3C100008D7
:101020000000002034000000A00F0008701000082D
:10103000340000204C040000B00F00080000000045
:1010400000000000000000000000000000000000A0
:101050000000000000000000000000000102030486
:10106000060708090000000001020304006CDC020E
:04000005080000C12E
:00000001FF
