:020000040800F2
:1000000060040020D9000008390200083502000809
:1000100000000000000000000000000000000000E0
:10002000000000000000000000000000990400082B
:100030000000000000000000CF0300086105000878
:10004000EB000008EB00000800000000EB000008D7
:10005000EB000008EB000008EB000008EB000008D4
:100060000000000000000000000000000000000090
:10007000EB000008EB000008EB00000800000000A7
:10008000EB0000080000000000000000EB0000088A
:10009000000000000000000000000000EB0000086D
:1000A00000000000EB00000800000000F905000857
:1000B000EB0000080000000000000000000000004D
:1000C0000448854600F02CF800480047930E0008CD
:1000D000C046C046600400200448804704480047EA
:1000E000FEE7FEE7FEE7FEE7FEE7FEE7790500082C
:1000F000C100000830B50B46014600202022012433
:1001000009E00D46D5409D4205D31D469540491B4B
:100110002546954040191546521E002DF1DC30BD94
:10012000064C0125064E05E0E36807CC2B430C3C4A
:1001300098471034B442F7D3FFF7C6FF040F000806
:10014000240F0008F8B50246CD782F073F0FCD7871
:1001500010263540002D01D08D782F431446002005
:1001600011E085062B0E0D88012686403540002DB6
:1001700007D025680F269E40B5433E469E40354336
:100180002560451CE8B20828EBDB141D0D882D12F4
:100190000095002011E085062B0E01258540009E6C
:1001A0003540002D07D025680F269E40B5433E46BA
:1001B0009E4035432560451CE8B20828EBDBCD782E
:1001C000282D04D155690E883543556106E0CD7858
:1001D000482D03D115690E8835431561F8BD70B5FA
:1001E0004D07EB0E082902DA0546203501E00546E9
:1001F00024352C460F269E402568B54316469E4062
:100200003543256070BD024690680840002801D043
:10021000012070470020FCE70021C9430180032131
:1002200081700421C1707047002A01D0016100E093
:100230004161704700BFFEE77047000081780029E8
:1002400025D01749032212028918027892109200D1
:10025000895802789207D30EFF229A409143427840
:100260009207120E03789B07DB0E9A4011430C4A4B
:1002700003231B02D21803789B109B00D1500178F6
:10028000CA06D20E01219140054A116007E00178AB
:10029000CA06D20E01219140014A80321160704796
:1002A00000E100E010B500F03DF800F001F810BDED
:1002B00008B50121480400F08BF86846FFF7ACFF51
:1002C0004321490268460180032181701021C170D9
:1002D00069460920C006FFF735FF00220121890287
:1002E0000920C006FFF7A0FF0022012149020920D2
:1002F000C006FFF799FF0122D1030920C006FFF7CE
:1003000093FF6846FFF788FFFF218131684601802F
:10031000032181704821C17069460920C006FFF79A
:1003200011FF08BD3EB5684600F072F87D21C90096
:100330000198FFF7DFFE0446601E0D49884201D98F
:1003400001200CE0601E0B4948610321081F00F0EA
:1003500055FD00200749886107200861002000281A
:1003600001D000BFFEE70021481E00F047FD3EBD62
:10037000FFFFFF0000E000E070B505460C46002DD1
:1003800006D0012D11D0022D1DD0032D1AD11BE056
:10039000012C01D1012000E0002002460121890248
:1003A0000920C006FFF740FF0FE0012C01D101201A
:1003B00000E000200246012149020920C006FFF7A3
:1003C00033FF02E000BF00BF00BF00BF70BD704739
:1003D000002905D0054A52690243044B5A6104E0E2
:1003E000024A52698243014B5A6170470010024031
:1003F000002905D0054AD2690243044BDA6104E0C2
:10040000024AD2698243014BDA6170470010024010
:1004100010B5002100221A4B5B680C2423401946BA
:10042000002906D0042907D0082908D00C290CD1AE
:1004300008E0144B03600BE0124B036008E0124B22
:10044000036005E0114B036002E00E4B036000BF48
:1004500000BF0B4B5B68F024234019090C4B5A5C1E
:100460000368D3404360064B5B68072424022340A3
:10047000190A084B5A5C4368D340836010BD0000E2
:100480000010024000127A00006CDC02409C000068
:100490001800002028000020704700001CB5002034
:1004A00001900120009000242848006801210843A1
:1004B0002649086000BF254800680221084000283E
:1004C000F9D023482349086023480068C008C000C9
:1004D0002149086008460068102108431E49086049
:1004E0001C490968481E1D49FFF704FE0446012CFB
:1004F00000D90124184800682043174908601348B0
:100500004468F02120468843044600BF0F484460F9
:1005100044680721090220468843044600BF0B486F
:100520004460406880088000084948600846406888
:10053000022108430549486000E000BF03484068C5
:100540000C2108400828F8D11CBD00000010024012
:10055000006CDC02300000200020024000366E01FA
:1005600004480068002804D002480068401E014981
:10057000086070471400002010B50D480068012184
:1005800008430B490860084640680A490840084982
:10059000486008460068012109048843044908604E
:1005A0000020C043886000208860FFF777FF10BDFF
:1005B000001002400CF8FFF80A4A51881E2900D9A1
:1005C0001E21002005E0084A125C084B1A54421C08
:1005D00090B28842F7DB064A1180024A5279054BF5
:1005E0001A707047340100203400002040020020BF
:1005F000100000201200002010B50024FF2101315E
:100600002B4800F054FA002805D10121284800F0B9
:100610004EFA002802D0264800F05AFB2021244838
:1006200000F045FA002824D0214800F051FBC4B264
:100630002048007900281CD11E484188008881424A
:1006400009DA1C494888411C8AB21A494A80FF3994
:1006500001390C540DE0012116484171017100224D
:100660002021134800F056FA00221021104800F013
:1006700051FA10210E4800F01AFA002817D00C4841
:1006800000F026FB0B480079002810D1094840886B
:1006900000280CD0012107480171002220210448C4
:1006A00000F038FA00221021014800F033FA10BDA2
:1006B000003801403401002010B5012211460248E3
:1006C000FFF7B2FD10BD00000004004800B587B080
:1006D00001214804FFF77CFE01218804FFF778FE22
:1006E000022201210920C006FFF779FD06A8FFF7C5
:1006F00093FD022168460183032181761821C1768A
:1007000006A90920C006FFF71DFD022201211F488E
:10071000FFF765FD06A8FFF77FFD0221684601830C
:10072000032181764821C17606A91848FFF70AFD02
:1007300006A8FFF771FD0121684601830321817638
:100740001021C17606A91148FFF7FCFC0022012107
:100750000E48FFF769FD01214804FFF749FE01A893
:1007600000F0F0FAE1204002019000200290039096
:1007700004900C20059001A9054800F0E1F9012141
:10078000034800F01CF907B000BD00000004004859
:100790000044004010B500BF4021054800F07EF93C
:1007A0000028F9D0002201210248FFF73DFD10BDCD
:1007B000004400400004004870B5FFF77DFF33A0FF
:1007C00000F0CBF83548008800F0D2F834A000F0F3
:1007D000C4F835490978002901D0312100E03021E1
:1007E000084600F089F831A000F0B7F831490978DF
:1007F000002901D0312100E03021084600F07CF8CA
:100800002DA000F0AAF825480088002803D12CA0CC
:1008100000F0A3F824E0002408E02C49085D00F073
:100820007BF8202000F068F8601C84B21B48008828
:100830008442F2DB194800881B2811D11A21234871
:1008400000F048FB054622A000F087F8284600F09B
:1008500063F82F2000F050F81C49887E00F05CF807
:100860001CA000F07AF81E490020085E00F066F82F
:100870001CA000F072F81E48007800F079F81DA066
:1008800000F06BF8FFF786FF70BD00000D0A5B54A7
:100890004F465D204C454E3D0000000010000020FA
:1008A000204F4B3D0000000003000020204F463D3C
:1008B0000000000012000020205241573D000000BF
:1008C0004E4F5F4652414D4500000000400200205F
:1008D000434B3D000D0A43414C5F544F463D0000E1
:1008E000000000206D6D20434F4E463D000000008B
:1008F000020000200D0A000010B5044621460548FC
:1009000000F01CFA00BF4021024800F0C7F80028A0
:10091000F9D010BD0044004010B504462106090F6F
:10092000054A505CFFF7E8FF2107090F024A505CB7
:10093000FFF7E2FF10BD0000F00E000870B504469E
:10094000002C05DA2D20FFF7D7FF604285B200E0CA
:10095000A5B2284600F00CF870BD10B5044603E0BF
:100960002078FFF7C9FF641C20780028F8D110BD5B
:100970007CB5054600240FE00A212846FFF7BAFBA4
:1009800030310420001B6A4611540A212846FFF723
:10099000B1FB0546601CC4B2052CEDD3002405E074
:1009A0006946085DFFF7A8FF601CC4B2052CF7D3A9
:1009B0007CBDCA4302607047CA4302607047002989
:1009C00005D0C26801235B031A43C26004E0C26819
:1009D00001235B039A43C2607047000010B588B0E2
:1009E00004461B216846017601214176817606A8DE
:1009F000FFF724FC01214804FFF7EAFC01220C2147
:100A00000920C006FFF7EBFB07A8FFF705FC012153
:100A1000090368468183032181771821C17707A9DB
:100A20000920C006FFF78EFB012203210920C00622
:100A3000FFF7D5FB07A8FFF7EFFB08216846818386
:100A4000032181774821C17707A90920C006FFF754
:100A500079FB01210804FFF7CBFC01A800F072F933
:100A6000019400200290039004900C20059001A9AD
:100A7000094800F065F801221102074800F04AF821
:100A800001221146044800F045F801210248FFF711
:100A900096FF08B010BD0000003801400246106803
:100AA0000840002801D0012070470020FCE710B565
:100AB00002460020102904D113681024234018098D
:100AC00027E0202904D1136820242340580920E07E
:100AD000402904D1136840242340980919E0802953
:100AE00004D1136880242340D80912E0FF23013386
:100AF000994203D11368D807C00F0AE0012908D131
:100B000013680E242340002B01D0012300E00023B2
:100B1000184610BD012909D1002A03D043690B43AF
:100B200043610CE043698B43436108E0002A03D032
:100B3000C3680B43C36002E0C3688B43C360704764
:100B4000FEB504460D460026E068032149028843AD
:100B500003225202E96811400843E060E068012185
:100B60000903884301221203696811400843E060C9
:100B7000E0680C2188430C22296911400843E06099
:100B80002069910288439202A968114008432061BC
:100B90006846FFF73DFC0E48844202D00D4884426F
:100BA00000D1029EA068000D0005A06030092968F0
:100BB000FFF7A0FA0001A1680843A0603046296849
:100BC000FFF798FA0007000FA1680843A060FEBD78
:100BD000003801400044004088B00024E120C002F9
:100BE000FFF7FCFEFFF772FD002131480171012182
:100BF000304801711E2000F071F800210846FFF70F
:100C0000BBFB00210120FFF7B7FB50E0284800792B
:100C100000283ED02648408827490880FFF7CCFCB2
:100C200023484079002821D12148418801AAFF3872
:100C3000013800F091F8002818D06846808B1F49D1
:100C400008806846807F1E49087001201D49087091
:100C50001D480068401C1C49086001210020FFF766
:100C60008BFB00210120FFF787FB0FE000201549D7
:100C7000087016480068401C1449086000210846A6
:100C8000FFF77AFB01210846FFF776FB1E2000F0F4
:100C900025F880210920C006FFF7B5FA002805D104
:100CA000002C04D10124FFF787FD00E00024ADE70C
:100CB000340100203A02002004000020000000203F
:100CC0000200002003000020080000200C0000208B
:100CD00001464868C005C00D7047000070B5044665
:100CE000FF2C00D9FF24002504E0002010494855BE
:100CF000681C85B2A542F8DB0E48048000214180C3
:100D0000017141710C48FFF7E3FF20210A48FFF70A
:100D100053FE20210848FFF74CFE012220210648FF
:100D2000FFF7F8FE012210210348FFF7F3FE70BD24
:100D3000340000203401002000380140CA05D20DE3
:100D4000426070474B21C901016000214160816010
:100D5000C1600C210161704770B504460E4615460E
:100D6000002C01D0002D01D1002070BD1B2E01D020
:100D70000020FAE720785A2805D160788E2802D121
:100D8000A078172801D00020EFE71A21204600F0B4
:100D9000A1F8A17E884201D00020E6E7E01C00F027
:100DA0007EF82880601D00F07AF86880E01D00F071
:100DB0007CF8686020460A3000F071F828812046EF
:100DC0000C3000F06CF8688120460E3000F06DF8B1
:100DD000E8602046113000F062F828822046133087
:100DE00000F06CF868612046173000F058F800B247
:100DF0002883607EA8760120B7E7000010B50028A0
:100E000019DB1A4A03231B02D21883089B00D2580D
:100E10008307DC0EFF23A3409A438B071B0E840736
:100E2000E40EA3401A43114B032424021B19840827
:100E3000A4001A5118E00E4A03071B0F083B9B0839
:100E40009B00D2588307DC0EFF23A3409A438B07F5
:100E50001B0E8407E40EA3401A43054B0407240F1E
:100E6000083CA408A4001A5110BD000000E100E0F5
:100E70001CED00E002E008C8121F08C1002AFAD1E8
:100E800070477047002001E001C1121F002AFBD10A
:100E90007047FFF707FAFFF79FFE00BFFEE7014626
:100EA00008784A78120210437047014608784A7859
:100EB000120210438A7812041043704701460878E2
:100EC0004A78120210438A7812041043CA78120634
:100ED0001043704710B502460B460024002103E082
:100EE000505C0419481C81B29942F9DBE0B210BD94
:100EF0003031323334353637383941424344454650
:100F000000000000240F0008000000203400000052
:100F1000740E0008580F0008340000202C04000054
:100F2000840E000800000000000000000000000027
:100F300000000000000000000000000000000000B1
:100F40000000000001020304060708090000000079
:080F500001020304006CDC0245
:04000005080000C12E
:00000001FF
