:020000040800F2
:1000000078030020D90000088F020008350200089C
:1000100000000000000000000000000000000000E0
:100020000000000000000000000000004105000882
:10003000000000000000000077040008C10E000866
:10004000EB000008EB00000800000000EB000008D7
:10005000EB000008EB000008EB000008EB000008D4
:100060000000000000000000000000000000000090
:10007000EB000008EB000008EB00000800000000A7
:10008000EB0000080000000000000000EB0000088A
:10009000000000000000000000000000EB0000086D
:1000A00000000000EB00000800000000D110000874
:1000B00029140008000000000000000000000000FB
:1000C0000448854600F02CF8004800470D18000849
:1000D000C046C046780300200448804704480047D3
:1000E000FEE7FEE7FEE7FEE7FEE7FEE7E90E0008B3
:1000F000C100000830B50B46014600202022012433
:1001000009E00D46D5409D4205D31D469540491B4B
:100110002546954040191546521E002DF1DC30BD94
:10012000064C0125064E05E0E36807CC2B430C3C4A
:1001300098471034B442F7D3FFF7C6FFC818000839
:10014000E8180008F8B50246CD782F073F0FCD78A4
:1001500010263540002D01D08D782F431446002005
:1001600011E085062B0E0D88012686403540002DB6
:1001700007D025680F269E40B5433E469E40354336
:100180002560451CE8B20828EBDB141D0D882D12F4
:100190000095002011E085062B0E01258540009E6C
:1001A0003540002D07D025680F269E40B5433E46BA
:1001B0009E4035432560451CE8B20828EBDBCD782E
:1001C000282D04D155690E883543556106E0CD7858
:1001D000482D03D115690E8835431561F8BD70B5FA
:1001E0004D07EB0E082902DA0546203501E00546E9
:1001F00024352C460F269E402568B54316469E4062
:100200003543256070BD024690680840002801D043
:10021000012070470020FCE70021C9430180032131
:1002200081700421C1707047002A01D0016100E093
:100230004161704700BFFEE7F8B504460F46164619
:10024000384600F0D1F805462078A84201D0257044
:1002500066606078A8420CD01E223046616800F0CB
:10026000BFFD002805D065706078002801D001200E
:10027000F8BD0020FCE770B504460D46164628463A
:1002800000F0B2F8207020786070666070BD704732
:100290008178002925D01749032212028918027893
:1002A00092109200895802789207D30EFF229A404A
:1002B000914342789207120E03789B07DB0E9A4017
:1002C00011430C4A03231B02D21803789B109B0096
:1002D000D1500178CA06D20E01219140054A116021
:1002E00007E00178CA06D20E01219140014A80320E
:1002F0001160704700E100E00148006870470000AD
:100300003400002010B500F045F800F001F810BDF1
:1003100008B50121480400F0AFF86846FFF77CFFFC
:100320004721490268460180032181701021C17074
:1003300069460920C006FFF705FF00220121890256
:100340000920C006FFF770FF0022012149020920A1
:10035000C006FFF769FF00220121C9020920C0067B
:10036000FFF762FF0122D1030920C006FFF75CFFFF
:100370006846FFF751FFFF21813168460180032164
:1003800081704821C17069460920C006FFF7DAFE76
:1003900008BD00003EB5684600F08EF87D21C9001A
:1003A0000198FFF7A7FE0446601E0D49884201D957
:1003B00001200CE0601E0B4948610321081F01F079
:1003C000D9F900200749886107200861002000282A
:1003D00001D000BFFEE70321081F01F0CBF93EBDAD
:1003E000FFFFFF0000E000E070B50446002C01D1E3
:1003F000802001E0FF200130054629460920C00683
:10040000FFF701FF002801D1012070BD0020FCE7AB
:1004100070B505460C46002D02D0012D1AD10CE016
:10042000012C01D1012000E00020024601218902B7
:100430000920C006FFF7F8FE0DE0012C01D10120D4
:1004400000E000200246012149020920C006FFF712
:10045000EBFE00E000BF00BF70BD10B50446012CEC
:1004600000D100E0002002460121C9020920C00697
:10047000FFF7DAFE10BD7047002905D0054A526922
:100480000243044B5A6104E0024A52698243014B21
:100490005A61704700100240002905D0054AD26910
:1004A0000243044BDA6104E0024AD2698243014B01
:1004B000DA6170470010024010B5002100221A4B8B
:1004C0005B680C2423401946002906D0042907D074
:1004D000082908D00C290CD108E0144B03600BE06C
:1004E000124B036008E0124B036005E0114B036000
:1004F00002E00E4B036000BF00BF0B4B5B68F024B3
:10050000234019090C4B5A5C0368D3404360064BE7
:100510005B68072424022340190A084B5A5C43688D
:10052000D340836010BD00000010024000127A002A
:10053000006CDC02409C00003800002048000020D5
:10054000704702460B46D11A002900DA494288B2A8
:100550007047000070B505460C461D48807A072894
:1005600000D370BD1A48817A807A401CC2B2184804
:1005700082724900001F4552001D807A072800D270
:10058000EFE713482038807801280FD10721104861
:10059000001F00F087F90E492039888002208870FA
:1005A0000846C4620BA000F0CFF80FE008482038DE
:1005B000807803280AD107210548001F00F072F94E
:1005C00003492039C880204600F07EF800BFC8E704
:1005D0007400002043414C315F4F4B0010B5FFF7D2
:1005E0008BFE044600200B49087048708870C87064
:1005F0000846846100212030017422460648FFF736
:100600003AFE224601210548FFF735FE00F008F8C2
:1006100010BD000054000020000000200800002051
:1006200010B500241548007800281AD001280DD0F4
:10063000022802D0032813D110E010484078002887
:1006400001D1012000E0002004460CE00B48407876
:10065000012800D100E00020044604E0002402E06C
:1006600000BF002400BF00BF002C01D0012100E02A
:1006700000210846FFF7F1FE10BD000054000020E5
:1006800070B504460D4600200A49887000210948CB
:10069000203081724B2212012146022000F06AFBB9
:1006A00005A000F0ADF8284600F081FE05A000F09E
:1006B0007EFE70BD5400002043414C5F4641494CD2
:1006C0002C0000000D0A0000F8B50446194A062166
:1006D000515E0420105EFFF734FF06461827BE4225
:1006E00004DA15A12046FFF7CBFFF8BD114A04211B
:1006F000515E0623D35EC818C10F09184D1028B2E9
:10070000114608810120C870002088700021204611
:1007100000F0D2FA012007490870FFF781FF192283
:1007200052012146012000F025FB05A000F00CF845
:1007300000BFDAE7540000205350414E0000000093
:1007400043414C5F4F4B000010B50446204600F07B
:1007500057F811A000F02BFE11490420085E00F0AC
:1007600017FE10A000F023FE0D490620085E00F0E1
:100770000FFE0EA000F01BFE09490820085E00F0E5
:1007800007FE0CA000F013FE022000F01FFE0BA0DD
:1007900000F00DFE10BD00002C50313D00000000A7
:1007A000540000202C50323D000000002C53503DDE
:1007B000000000002C4859533D0000000D0A0000C5
:1007C00010B508A000F0F3FD09494978002901D1CE
:1007D00008A100E008A1084600F0E9FD07A000F02C
:1007E000E6FD10BD45563D4D4F44452C0000000030
:1007F000540000204E4F00004E4300000D0A000040
:1008000010B5044603A000F0D2FD204600F0CFFD55
:1008100010BD000045563D00F8B507460C4615468C
:100820001E463846FFF7ECFF0AA000F0C0FD204648
:1008300000F0AEFD08A000F0BAFD284600F0C6FDAD
:1008400006A000F0B4FD304600F0C6FD04A000F0A4
:10085000AEFDF8BD2C443D002C4E3D002C543D0017
:100860006D730D0A0000000010B5044609480078B9
:10087000032800D110BD0121204600F01DFA0320FD
:1008800004490870FFF7CCFE03A000F090FD00BF04
:10089000F0E700005400002045563D4641554C54B9
:1008A0000D0A0000FFB505460B46002106E0480092
:1008B000285A4E006F46B853481CC1B29942F6DB25
:1008C00001211CE048006E46345E0A4609E0501ED5
:1008D0000006C00D6E46305A56006F46B853501E83
:1008E000C2B2002A06D0501E0006C00D6E46305E11
:1008F000A042ECDC50006E463452481CC1B2994212
:10090000E0DB580840006E46305E04B0F0BD0000E9
:1009100070B50446002C00D170BDE569208B1C49E0
:100920008882A07E8875204600F03CF8002804D11B
:100930000121284600F0C0F9EEE71548856180786E
:10094000012803D012488078032805D11820205EA2
:100950002946FFF7FFFDDFE70D48C078002800D1EA
:10096000DAE70B48007803280BD10021284600F075
:10097000A3F9012006490870FFF752FE05A000F018
:1009800016FD1820205E294600F022F900BFC3E7BB
:100990005400002045563D5245434F5645520D0ADE
:1009A000000000000146002900D17047887E5A28C7
:1009B00001D20020F9E71820085E012804DB182086
:1009C000085E034A904201DD0020EEE70120ECE7DB
:1009D0003075000010B50446224600211748FFF785
:1009E0002BFC00280FD016488078002804D121461F
:1009F000012000F0C9F906E011488078022802D1F0
:100A0000214600F0C1F9224601210E48FFF714FCEF
:100A1000002812D00A484078002801D1012000E0C7
:100A2000002007494870FFF7FBFDFF225F32214697
:100A3000032000F09FF9FFF7C3FE10BD0000002067
:100A4000540000200800002070B50646FF21F53153
:100A50003046FFF74FFBC507ED0F7D213046FFF70E
:100A600049FBC407E40F5948007C002841D057488F
:100A70002038416B304600F0BBF9002803D000213C
:100A80005248017435E05148007C012808D1012109
:100A90000020FFF7BDFC00210120FFF7B9FC70BD6D
:100AA0004A48007C02280DD100210846FFF7B0FC1F
:100AB000002C01D0012000E0002001460120FFF7BA
:100AC000A7FCECE74148007C032812D1002C01D0A0
:100AD000012000E0002001460020FFF799FC002CD7
:100AE00001D0012000E0002001460120FFF790FC2A
:100AF000D5E736482038807801280CD1002D00D069
:100B000000E0002001460020FFF782FC00210120C8
:100B1000FFF77EFCC3E72D482038807802280DD1EE
:100B2000002C01D0012000E0002001460020FFF74A
:100B30006FFC00210120FFF76BFCB0E72348203851
:100B40008078032812D1002C01D0012000E0002081
:100B500001460020FFF75CFC002C01D0012000E0E2
:100B6000002001460120FFF753FC98E71748203882
:100B70000078002804D015482038007803280DD1CB
:100B800000210846FFF744FC002D01D0012000E0C1
:100B9000002001460120FFF73BFC80E70B4820388E
:100BA0000078022808D101210020FFF731FC002144
:100BB0000120FFF72DFC07E000210846FFF728FC85
:100BC00001210846FFF724FC00BF68E774000020FD
:100BD000F8B505460C4635490820085E871C0820F4
:100BE000085E801E00900846007801282BD1002066
:100BF000C872BD4223DB0846807A002801D108462E
:100C0000C4602A48807A022804D22848807A401C8E
:100C1000264988722548807A022845D32348C0682F
:100C2000261A02202149087000208872FFF7F8FC7C
:100C30003346022229461EA0FFF7EEFD34E00020D5
:100C40001A49887230E01948007802282CD1002017
:100C5000164988720098854223DC0846C07A00282D
:100C600001D1084604611148C07A022804D20F4815
:100C7000C07A401C0D49C8720C48C07A022813D3B0
:100C80000A480069261A0120084908700020C87225
:100C9000FFF7C6FC33460222294606A0FFF7BCFD3B
:100CA00002E000200149C872F8BD00005400002095
:100CB0004F4E00004F4646000022024B9A72DA72F5
:100CC000704700005400002010B50446204880788A
:100CD000012803D01E48807803280DD11C487D22AE
:100CE0001201C16A204600F07BF8002814D019A137
:100CF0002046FFF7C5FC0FE01548807802280BD18D
:100D00001348174AC16A204600F06AF8002803D049
:100D100014A12046FFF7B4FC0D48C078002816D077
:100D20000B48C8228169204600F05AF8002803D0F9
:100D30002046FFF799FD0AE096220D4801682046FB
:100D400000F04EF8002802D02046FFF78DFD10BDC0
:100D500054000020434150545552455F544F000009
:100D60003075000057414954325F544F0000000075
:100D70002400002010B5034B18748B18014C203C44
:100D8000636310BD7400002070B504460D46002159
:100D90000A4881722038C562012C07D10120074919
:100DA0002039887006A000F002FB06E0032003490A
:100DB0002039887006A000F0FAFA70BD7400002097
:100DC00045563D43414C315F53544152540D0A0046
:100DD00045563D43414C325F53544152540D0A0035
:100DE0000346581A904201D3012070470020FCE7C7
:100DF0000246501AC017401C704700001CB5002066
:100E00000190012000900024284800680121084337
:100E10002649086000BF25480068022108400028D4
:100E2000F9D023482349086023480068C008C0005F
:100E30002149086008460068102108431E490860DF
:100E40001C490968481E1D49FFF754F90446012C46
:100E500000D9012418480068204317490860134846
:100E60004468F02120468843044600BF0F48446090
:100E700044680721090220468843044600BF0B4806
:100E8000446040688008800008494860084640681F
:100E9000022108430549486000E000BF034840685C
:100EA0000C2108400828F8D11CBD000000100240A9
:100EB000006CDC02500000200020024000366E0171
:100EC00007480068401C064908600648006800287A
:100ED00004D004480068401E0249086070470000C2
:100EE000340000203000002010B50D4800680121BA
:100EF00008430B490860084640680A490840084909
:100F000048600846006801210904884304490860D4
:100F10000020C043886000208860FFF76FFF10BD8D
:100F2000001002400CF8FFF810B5044600200B49F1
:100F300008700B4908700B4908600B4908600B49A1
:100F40000860FFF7D9F90A490860204600F084FAE2
:100F500000F01EF91E2000F07BFB10BD2C000020CD
:100F600013000020180000201C000020200000209A
:100F7000240000200146002903D0164800780028EC
:100F800001D100207047144800880880124840882A
:100F900048801148406848600F48008908810E4821
:100FA000408948810C48C068C8600B48008A0882A4
:100FB0000948406948610848008B08830648807EDC
:100FC00088760548C069C8610020024A1070012077
:100FD000D8E700002C000020D400002010B588B015
:100FE00030480079002801D108B010BD2D48448850
:100FF0002D4804802B484079002846D16A46214676
:101000002848403800F062FB00283ED06846008B3C
:10101000264908806846807E2549087001202549B8
:10102000087025480068401C234908602349079838
:10103000086023480078002821D1684600882149AB
:101040000880684640884880019848606846008962
:1010500008816846408948810398C8606846008ACC
:101060000882059848616846008B08836846807E40
:1010700088760798C8610120114908700DE0124870
:101080000068401C1049086007E00020094908700A
:101090000E480068401C0D4908601E2000F0D8FA78
:1010A00000BFA1E7CC0000201400002010000020A9
:1010B000120000201300002018000020240000204F
:1010C0002C000020D4000020200000201C00002064
:1010D00010B50024FF2101312B4800F01DFA002833
:1010E00005D10121284800F017FA002802D026482F
:1010F00000F0A8FA2021244800F00EFA002823D09E
:10110000214800F09FFAC4B22048007900281BD182
:101110001E4841880088814208DA1C494888411CE1
:101120008AB21A494A8040390C540DE0012117480F
:101130004171017100222021134800F020FA0022A1
:101140001021114800F01BFA10210F4800F0E4F9BB
:10115000002817D00C4800F075FA0C4800790028D8
:1011600010D10A48408800280CD00121074801719D
:1011700000222021044800F002FA00221021024837
:1011800000F0FDF910BD000000380140CC00002047
:1011900000B587B001214804FFF76EF901218804EA
:1011A000FFF76AF9022201210920C006FFF717F8AC
:1011B00006A8FFF731F802216846018303218176F2
:1011C0001821C17606A90920C006FEF7BBFF02223E
:1011D00001212948FFF703F806A8FFF71DF80221AF
:1011E00068460183032181764821C17606A92248F9
:1011F000FEF7A8FF06A8FFF70FF801216846018354
:10120000032181761021C17606A91B48FEF79AFFBB
:10121000002201211848FFF707F801214804FFF7D1
:101220003BF9684600F048FAE120400200900020B7
:101230000190029003900C20049069460F4800F042
:10124000B5F9002280210D4800F099F900224021D3
:101250000A4800F094F91C21684601750221417585
:101260000121817505A8FFF713F80121034800F05B
:10127000E5F807B000BD000000040048004400404D
:1012800010B58021204800F047F900281DD01F48E4
:1012900004781F48007884420AD01E48015D1A482D
:1012A00000F006FA601C4006400E184908700CE079
:1012B00000228021144800F062F9012016490870CC
:1012C00001224021104800F05AF940210E4800F058
:1012D00023F9002816D010480078002812D00B48B7
:1012E00000780B49097888420CD100224021064839
:1012F00000F045F900200849087000220121074844
:10130000FEF792FF10BD0000004400402E000020B8
:101310002D000020F40000202F00002000040048D1
:1013200070B5044613480678701C45066D0E1248C9
:101330000078854205D111480068401C0F490860BB
:1013400070BD0F4884550B480570012211460D48A9
:10135000FEF76AFF00200C490870002240210B486C
:1013600000F00DF901228021084800F008F900BFC3
:10137000E6E700002D0000202E00002028000020BD
:10138000F4000020000400482F000020004400402A
:1013900010B50446002C06DA2D20FFF7C1FF60428D
:1013A00000F01AF802E0204600F016F810BD10B563
:1013B0000446002C00D110BD03E02078FFF7B0FFF9
:1013C000641C20780028F8D100BFF4E710B504466B
:1013D000204600F001F810BD3EB505460024002D62
:1013E00003D13020FFF79CFF3EBD0EE00A212846C6
:1013F000FEF780FE30312046621CD4B26A4611549A
:101400000A212846FEF776FE0546002D01D00A2C5B
:10141000ECD305E0601EC4B26946085DFFF780FFAB
:10142000002CF7D100BFDFE710B5FFF729FF10BD93
:10143000CA4302607047CA4302607047002905D062
:10144000C26801235B031A43C26004E0C26801233F
:101450005B039A43C260704710B588B004461B21F5
:1014600068460176002141760121817606A8FEF7C3
:101470000FFF01214804FEF7FFFF01220C21092084
:10148000C006FEF7ACFE07A8FEF7C6FE0121090361
:1014900068468183032181771821C17707A9092034
:1014A000C006FEF74FFE012203210920C006FEF709
:1014B00096FE07A8FEF7B0FE082168468183032147
:1014C00081774821C17707A90920C006FEF73AFEB7
:1014D00001210804FEF7E0FF01A800F0EDF80194F7
:1014E00000200290039004900C20059001A9094867
:1014F00000F05CF801221102064800F040F80122D9
:101500001146044800F03BF801210248FFF796FF1E
:1015100008B010BD0038014010B502460020102967
:1015200004D1136810242340180927E0202904D18E
:10153000136820242340580920E0402904D113686F
:1015400040242340980919E0802904D1136880249D
:101550002340D80912E0FF230133994203D11368D5
:10156000D807C00F0AE0012908D113680E242340D0
:10157000002B01D0012300E00023184610BD0129F3
:1015800009D1002A03D043690B4343610CE043694E
:101590008B43436108E0002A03D0C3680B43C36058
:1015A00002E0C3688B43C36070470000FEB5044689
:1015B0000D460026E06803214902884303225202B7
:1015C000E96811400843E060E068012109038843AD
:1015D00001221203696811400843E060E0680C21B1
:1015E00088430C22296911400843E0602069910278
:1015F00088439202A9681140084320616846FEF7BB
:101600005BFF0E48844202D00D48844200D1029E06
:10161000A068000D0005A06030092968FEF76AFD8A
:101620000001A1680843A06030462968FEF762FD0A
:101630000007000FA1680843A060FEBD003801400C
:101640000044004001464868C005C00D70470000D6
:1016500070B50446402C00D94024002504E0002049
:1016600011494855681C85B2A542F8DB0E48403048
:10167000048000214180017141710C48FFF7E2FFB5
:1016800020210A48FFF7D7FE20210848FFF7D0FEA7
:10169000012220210548FFF772FF01221021034893
:1016A000FFF76DFF70BD00008C0000200038014086
:1016B000CA05D20D426070474B21C901016000216B
:1016C00041608160C1600C210161704770B50446C2
:1016D0000E461546002C01D0002D01D1002070BD12
:1016E0001B2E01D00020FAE720785A2805D1607817
:1016F0008E2802D1A078172801D00020EFE71A2108
:10170000204600F0D2F8A17E884201D00020E6E712
:10171000E01C00F0AFF82880601D00F0ABF8688096
:10172000E01D00F0ADF8686020460A3000F0A2F835
:10173000288120460C3000F09DF8688120460E304C
:1017400000F09EF8E8602046113000F093F82882FF
:101750002046133000F09DF868612046173000F0F5
:1017600089F800B22883607EA876FEF7C5FDE8619F
:101770000120B4E710B5002819DB1A4A03231B0225
:10178000D21883089B00D2588307DC0EFF23A340A6
:101790009A438B071B0E8407E40EA3401A43114B98
:1017A000032424021B198408A4001A5118E00E4ACD
:1017B00003071B0F083B9B089B00D2588307DC0ED6
:1017C000FF23A3409A438B071B0E8407E40EA3401C
:1017D0001A43054B0407240F083CA408A4001A511F
:1017E00010BD000000E100E01CED00E002E008C8D0
:1017F000121F08C1002AFAD170477047002001E08B
:1018000001C1121F002AFBD17047000088B0FEF70B
:1018100079FDE120C002FFF787FBFEF7DFFE0EA097
:10182000FFF7C5FD16E0FFF7D9FB02E06846FFF7BA
:101830006FF86846FFF79EFB0028F7D1FEF75CFDC6
:1018400004462046FFF7C6F82046FFF73DFA20463B
:10185000FFF7FAF8E7E70000594330325F544F468C
:1018600030315F53454E534F525F52454144590DFD
:101870000A000000014608784A78120210437047B7
:10188000014608784A78120210438A7812041043FD
:101890007047014608784A78120210438A78120489
:1018A0001043CA7812061043704710B502460B4623
:1018B0000024002103E0505C0419481C81B29942C5
:1018C000F9DBE0B210BD0000E818000800000020BD
:1018D00054000000EC1700083C19000854000020D8
:1018E00024030000FC1700080000000000000000B6
:1018F00000000000000000000000000000000000E8
:1019000000000000000000000000000000000000D7
:1019100000000000000000000000000000000000C7
:10192000000000000000000001020304060708098F
:0C1930000000000001020304006CDC0257
:04000005080000C12E
:00000001FF
