:020000040800F2
:1000000030040020D9000008E5030008E1030008DF
:1000100000000000000000000000000000000000E0
:100020000000000000000000000000009105000832
:100030000000000000000000C50400085906000888
:10004000EB000008EB00000800000000EB000008D7
:10005000EB000008EB000008EB000008EB000008D4
:100060000000000000000000000000000000000090
:10007000EB000008EB000008EB00000800000000A7
:10008000EB0000080000000000000000EB0000088A
:10009000000000000000000000000000EB0000086D
:1000A00000000000EB00000800000000B10600089E
:1000B000010800080000000000000000000000002F
:1000C0000448854600F03EF800480047730D0008DC
:1000D000C046C0463004002004488047044800471A
:1000E000FEE7FEE7FEE7FEE7FEE7FEE77106000833
:1000F000C100000830B50B46014600202022012433
:1001000009E00D46D5409D4205D31D469540491B4B
:100110002546954040191546521E002DF1DC30BD94
:1001200003460B439B0703D009E008C9121F08C010
:10013000042AFAD203E00B780370401C491C521EBB
:10014000F9D27047064C0125064E05E0E36807CC5E
:100150002B430C3C98471034B442F7D3FFF7B4FF5D
:10016000800D0008A00D000808B50121480400F02A
:10017000ABF90121880400F0A7F9684600F022F9E4
:100180000321490268460180032181701021C1705A
:1001900069460920C00600F0A2F8684600F012F98E
:1001A0000121C90268460180032181701021C170BC
:1001B00069460920C00600F092F8684600F002F98E
:1001C000FF21813168460180032181704821C1707F
:1001D00069460920C00600F082F8002000F021F8EE
:1001E000012000F01EF800F05CF808BD10B50446D0
:1001F000002C0AD180210920C00600F0D1F8002887
:1002000001D1012010BD0020FCE7FF2101310920B0
:10021000C00600F0C5F8002801D10120F2E7002057
:10022000F0E710B50446002C07D100220121890215
:100230000920C00600F0CEF806E0002201214902A4
:100240000920C00600F0C6F810BD70B50446002CA9
:1002500013D1012189020920C00600F0AAF8002864
:1002600001D1012000E0002005462A460121890233
:100270000920C00600F0AEF812E001214902092071
:10028000C00600F096F8002801D1012000E000200F
:1002900005462A46012149020920C00600F09AF8C5
:1002A00070BD10B500220121C9020920C00600F06E
:1002B00091F810BD10B50121C9020920C00600F057
:1002C00078F8002801D1012000E0002004462246F1
:1002D0000121C9020920C00600F07CF810BDF8B564
:1002E0000246CD782F073F0FCD7810263540002DE0
:1002F00001D08D782F431446002011E085062B0E87
:100300000D88012686403540002D07D025680F2630
:100310009E40B5433E469E4035432560451CE8B2AD
:100320000828EBDB141D0D882D120095002011E02C
:1003300085062B0E01258540009E3540002D07D0F7
:1003400025680F269E40B5433E469E4035432560B6
:10035000451CE8B20828EBDBCD78282D04D155697F
:100360000E883543556106E0CD78482D03D11569D7
:100370000E8835431561F8BD70B54D07EB0E0829A1
:1003800002DA0546203501E0054624352C460F26C5
:100390009E402568B54316469E403543256070BD96
:1003A000024690680840002801D0012070470020D4
:1003B000FCE70246D0680840002801D001207047C1
:1003C0000020FCE70021C943018003218170042142
:1003D000C1707047002A01D0016100E0416170479F
:1003E00000BFFEE7704700008178002925D017493B
:1003F000032212028918027892109200895802781A
:100400009207D30EFF229A40914342789207120E30
:1004100003789B07DB0E9A4011430C4A03231B020F
:10042000D21803789B109B00D1500178CA06D20ED7
:1004300001219140054A116007E00178CA06D20EF9
:1004400001219140014A80321160704700E100E0D3
:100450000349086000BF024909680029FBD17047C1
:100460000400002010B500F003F8FFF77DFE10BD7A
:100470003EB5684600F048F87D21C9000198FFF7B5
:1004800039FE0446601E0D49884201D901200CE066
:10049000601E0B4948610321081F00F01FFC00206B
:1004A00007498861072008610020002801D000BFAB
:1004B000FEE70021481E00F011FC3EBDFFFFFF00DB
:1004C00000E000E070470000002905D0054A5269AD
:1004D0000243044B5A6104E0024A52698243014BD1
:1004E0005A61704700100240002905D0054AD269C0
:1004F0000243044BDA6104E0024AD2698243014BB1
:10050000DA6170470010024010B5002100221A4B3A
:100510005B680C2423401946002906D0042907D023
:10052000082908D00C290CD108E0144B03600BE01B
:10053000124B036008E0124B036005E0114B0360AF
:1005400002E00E4B036000BF00BF0B4B5B68F02462
:10055000234019090C4B5A5C0368D3404360064B97
:100560005B68072424022340190A084B5A5C43683D
:10057000D340836010BD00000010024000127A00DA
:10058000006CDC02409C00000800002018000020E5
:10059000704700001CB5002001900120009000244D
:1005A00028480068012108432649086000BF254803
:1005B0000068022108400028F9D023482349086038
:1005C00023480068C008C000214908600846006848
:1005D000102108431E4908601C490968481E1D492E
:1005E000FFF788FD0446012C00D901241848006853
:1005F00020431749086013484468F0212046884387
:10060000044600BF0F4844604468072109022046A1
:100610008843044600BF0B4844604068800880005F
:100620000849486008464068022108430549486077
:1006300000E000BF034840680C2108400828F8D1BA
:100640001CBD000000100240006CDC0220000020F5
:100650000020024000366E0104480068002804D0E3
:1006600002480068401E01490860704704000020ED
:1006700010B50D480068012108430B490860084681
:1006800040680A4908400849486008460068012156
:1006900009048843044908600020C04388600020A2
:1006A0008860FFF777FF10BD001002400CF8FFF8DC
:1006B00010B50249024800F09EFA10BD2400002047
:1006C0000038014010B5044621460C4800F048F9B6
:1006D0000B4800F08BFA2021094800F03EF9202158
:1006E000074800F037F901222021054800F099F968
:1006F00001221021024800F094F910BD24000020CE
:100700000038014070B505460E46002404E0285D1F
:1007100000F006F8601C84B2B442F8DB70BD000043
:1007200010B504462146054800F0CAFA00BF402132
:10073000024800F03AF90028F9D010BD0038014015
:1007400010B588B0044601214804FFF7BDFE012121
:100750000804FFF7C9FE04220C210920C006FFF798
:100760000BFE07A8FFF72EFE0121090368468183CF
:10077000032181771821C17707A90920C006FFF757
:10078000AEFD042203210920C006FFF7F5FD07A8EE
:10079000FFF718FE082168468183032181774821ED
:1007A000C17707A90920C006FFF799FD02A800F04C
:1007B0008BFA029400200390049005900C20069080
:1007C00002A90E4800F044F9012211020B4800F082
:1007D00028F901221146094800F023F91B21684637
:1007E000017101214171817101A8FFF7FDFD012116
:1007F000024800F0CCF808B010BD000000380140FD
:1008000010B50249024800F0F6F910BD2A01002097
:100810000044004010B588B0044601214804FFF7A9
:1008200053FE01218804FFF74FFE01214804FFF722
:100830005BFE022201212648FFF79EFD07A8FFF775
:10084000C1FD022168468183032181771821C17788
:1008500007A91F48FFF743FD022201210920C00616
:10086000FFF78AFD07A8FFF7ADFD022168468183E7
:10087000032181774821C17707A90920C006FFF726
:100880002EFD02A800F020FA0294002003900490AC
:1008900005900C20069002A90E4800F0D9F801221C
:1008A00011020C4800F0BDF801221146094800F081
:1008B000B8F81C216846017101214171817101A8BC
:1008C000FFF792FD0121034800F061F808B010BD68
:1008D000000400480044004010B5044621460C487E
:1008E00000F03EF80B4800F081F92021094800F0A3
:1008F00034F82021074800F02DF801222021054876
:1009000000F08FF801221021024800F08AF810BD93
:100910002A0100200044004070B505460E46002420
:1009200004E0285D00F006F8601C84B2B442F8DBF5
:1009300070BD000010B504462146054800F0C0F91E
:1009400000BF4021024800F030F80028F9D010BD67
:1009500000440040CA4302607047CA4302607047C7
:1009600010B5FF2900DDFF21002203E0002383549E
:10097000531C9AB28A42F9DBFF2301331952002437
:100980009B1C1C529B1C1C545B1C1C5410BD00293E
:1009900005D0C26801235B031A43C26004E0C26849
:1009A00001235B039A43C260704702461068084007
:1009B000002801D0012070470020FCE710B5024656
:1009C0000020102904D1136810242340180927E0BF
:1009D000202904D1136820242340580920E040290D
:1009E00004D1136840242340980919E0802904D1D8
:1009F000136880242340D80912E0FF230133994271
:100A000003D11368D807C00F0AE0012908D1136881
:100A10000E242340002B01D0012300E000231846C0
:100A200010BD012909D1002A03D043690B4343615A
:100A30000CE043698B43436108E0002A03D0C3689C
:100A40000B43C36002E0C3688B43C3607047000080
:100A5000FEB504460D460026E0680321490288439E
:100A600003225202E96811400843E060E068012176
:100A70000903884301221203696811400843E060BA
:100A8000E0680C2188430C22296911400843E0608A
:100A90002069910288439202A968114008432061AD
:100AA0006846FFF731FD0E48844202D00D4884426B
:100AB00000D1029EA068000D0005A06030092968E1
:100AC000FFF718FB0001A1680843A06030462968C1
:100AD000FFF710FB0007000FA1680843A060FEBDF0
:100AE000003801400044004090B01C222CA109A80D
:100AF000FFF716FB202231A101A8FFF711FBE1202F
:100B0000C002FFF71DFEE1204002FFF783FE4020F8
:100B1000FFF7D8FD4020FFF7DFFE40E00020FFF7A1
:100B200065FB05460120FFF761FB0446012D0ED150
:100B30002A48007800280AD1FFF787FBFFF7BAFBA5
:100B40001B2109A8FFF7DEFD1420FFF781FC012C13
:100B50000DD123480078002809D10120FFF775FB4B
:100B60001C2101A8FFF7D8FE1420FFF771FC1B48D9
:100B700005701B4804701B480079002805D0002030
:100B8000FFF763FB4020FFF79DFD17480079002821
:100B900005D00120FFF759FB4020FFF79DFEBDE780
:100BA000544F4620555341525431206B6579206291
:100BB0006C75652070726573730D0A00525334387A
:100BC0003520555341525432206B6579207265644B
:100BD0002070726573730D0A000000000000002091
:100BE00001000020240100202A020020014648685C
:100BF000C005C00D704770B505460C460026FF21A4
:100C000001312846FFF7DAFE002805D101212846E8
:100C1000FFF7D4FE002802D02846FFF7E7FF202187
:100C20002846FFF7CBFE002828D02846FFF7DEFF36
:100C3000C6B2FF200530005D00281FD1FF20033021
:100C4000015B801E005B814208DAFF210331085BF3
:100C5000411CFF220332115326540FE00121FF20D3
:100C600006300155401E0155002220212846FFF77D
:100C7000D8FE002210212846FFF7D3FE1021284677
:100C8000FFF79CFE00281AD02846FFF7AFFFFF2091
:100C90000530005D002812D1FF200330005B0028E2
:100CA0000DDD0121FF2005300155002220212846BD
:100CB000FFF7B7FE002210212846FFF7B2FE70BDF5
:100CC000CA05D20D426070474B21C9010160002165
:100CD00041608160C1600C210161704710B500283E
:100CE00019DB1A4A03231B02D21883089B00D2582F
:100CF0008307DC0EFF23A3409A438B071B0E840758
:100D0000E40EA3401A43114B032424021B19840848
:100D1000A4001A5118E00E4A03071B0F083B9B085A
:100D20009B00D2588307DC0EFF23A3409A438B0716
:100D30001B0E8407E40EA3401A43054B0407240F3F
:100D4000083CA408A4001A5110BD000000E100E016
:100D50001CED00E002E008C8121F08C1002AFAD109
:100D600070477047002001E001C1121F002AFBD12B
:100D70007047FFF777FBFFF7B7FE00BFFEE7000005
:100D8000A00D00080000002024000000540D000801
:100D9000C40D0008240000200C040000640D0008AD
:100DA0000000000000000000000000000000000043
:100DB0000102030406070809000000000102030401
:040DC000006CDC02E5
:04000005080000C12E
:00000001FF
