:020000040800F2
:1000000040040020D900000827020008230200084D
:1000100000000000000000000000000000000000E0
:10002000000000000000000000000000650400085F
:1000300000000000000000009B0300082D050008E0
:10004000EB000008EB00000800000000EB000008D7
:10005000EB000008EB000008EB000008EB000008D4
:100060000000000000000000000000000000000090
:10007000EB000008EB000008EB00000800000000A7
:10008000EB0000080000000000000000EB0000088A
:10009000000000000000000000000000EB0000086D
:1000A00000000000EB0000080000000085050008CB
:1000B000EB0000080000000000000000000000004D
:1000C0000448854600F02CF800480047E70A00087D
:1000D000C046C0464004002004488047044800470A
:1000E000FEE7FEE7FEE7FEE7FEE7FEE74505000860
:1000F000C100000830B50B46014600202022012433
:1001000009E00D46D5409D4205D31D469540491B4B
:100110002546954040191546521E002DF1DC30BD94
:10012000064C0125064E05E0E36807CC2B430C3C4A
:1001300098471034B442F7D3FFF7C6FF440B0008CA
:10014000640B0008F8B50246CD782F073F0FCD7835
:1001500010263540002D01D08D782F431446002005
:1001600011E085062B0E0D88012686403540002DB6
:1001700007D025680F269E40B5433E469E40354336
:100180002560451CE8B20828EBDB141D0D882D12F4
:100190000095002011E085062B0E01258540009E6C
:1001A0003540002D07D025680F269E40B5433E46BA
:1001B0009E4035432560451CE8B20828EBDBCD782E
:1001C000282D04D155690E883543556106E0CD7858
:1001D000482D03D115690E8835431561F8BD70B5FA
:1001E0004D07EB0E082902DA0546203501E00546E9
:1001F00024352C460F269E402568B54316469E4062
:100200003543256070BD0021C94301800321817001
:100210000421C1707047002A01D0016100E04161F2
:10022000704700BFFEE770478178002925D0174945
:1002300003221202891802789210920089580278DB
:100240009207D30EFF229A40914342789207120EF2
:1002500003789B07DB0E9A4011430C4A03231B02D1
:10026000D21803789B109B00D1500178CA06D20E99
:1002700001219140054A116007E00178CA06D20EBB
:1002800001219140014A80321160704700E100E095
:1002900010B500F02DF800F001F810BD08B50121EF
:1002A000480400F07BF86846FFF7ADFF43214902A0
:1002B00068460180032181701021C17069460920C0
:1002C000C006FFF73FFF0022012189020920C00676
:1002D000FFF7A1FF0022012149020920C006FFF714
:1002E0009AFF0122D1030920C006FFF794FF08BD41
:1002F0003EB5684600F072F87D21C9000198FFF70D
:10030000F9FE0446601E0D49884201D901200CE027
:10031000601E0B4948610321081F00F099FB002073
:1003200007498861072008610020002801D000BF2C
:10033000FEE70021481E00F08BFB3EBDFFFFFF00E3
:1003400000E000E070B505460C46002D06D0012DFA
:1003500011D0022D1DD0032D1AD11BE0012C01D18B
:10036000012000E000200246012189020920C00688
:10037000FFF751FF0FE0012C01D1012000E0002028
:100380000246012149020920C006FFF744FF02E0AE
:1003900000BF00BF00BF00BF70BD7047002905D07F
:1003A000054A52690243044B5A6104E0024A526909
:1003B0008243014B5A61704700100240002905D06A
:1003C000054AD2690243044BDA6104E0024AD26969
:1003D0008243014BDA6170470010024010B50021E2
:1003E00000221A4B5B680C2423401946002906D0D2
:1003F000042907D0082908D00C290CD108E0144B97
:1004000003600BE0124B036008E0124B036005E051
:10041000114B036002E00E4B036000BF00BF0B4BAB
:100420005B68F024234019090C4B5A5C0368D340E5
:100430004360064B5B68072424022340190A084BDB
:100440005A5C4368D340836010BD00000010024036
:1004500000127A00006CDC02409C000014000020B6
:1004600024000020704700001CB5002001900120EE
:1004700000900024284800680121084326490860AC
:1004800000BF25480068022108400028F9D0234811
:100490002349086023480068C008C000214908605B
:1004A00008460068102108431E4908601C49096875
:1004B000481E1D49FFF71EFE0446012C00D90124E9
:1004C0001848006820431749086013484468F02121
:1004D00020468843044600BF0F4844604468072113
:1004E000090220468843044600BF0B484460406828
:1004F0008008800008494860084640680221084397
:100500000549486000E000BF034840680C210840EE
:100510000828F8D11CBD000000100240006CDC026D
:100520002C0000200020024000366E0104480068C4
:10053000002804D002480068401E01490860704746
:100540001000002010B50D480068012108430B4938
:100550000860084640680A4908400849486008465B
:100560000068012109048843044908600020C04351
:10057000886000208860FFF777FF10BD0010024000
:100580000CF8FFF810B50024FF2101312B4800F0D2
:10059000CDF8002805D10121284800F0C7F800282F
:1005A00002D0264800F0C2F92021244800F0BEF80D
:1005B000002824D0214800F0B9F9C4B220480079BD
:1005C00000281CD11E4841880088814209DA1C4954
:1005D0004888411C8AB21A494A80FF3901390C54B3
:1005E0000DE00121164841710171002220211348BC
:1005F00000F0CFF800221021104800F0CAF81021B6
:100600000E4800F093F8002817D00C4800F08EF93F
:100610000B480079002810D10948408800280CD0E8
:1006200001210748017100222021044800F0B1F89F
:1006300000221021014800F0ACF810BD0038014044
:1006400030010020CA4302607047CA43026070470D
:10065000002905D0C26801235B031A43C26004E08D
:10066000C26801235B039A43C260704710B588B02B
:1006700004461B216846017601214176817606A851
:10068000FFF7D2FD01214804FFF788FE01220C216B
:100690000920C006FFF7A3FD07A8FFF7B4FD01215D
:1006A000090368468183032181771821C17707A94F
:1006B0000920C006FFF746FD012203210920C006DC
:1006C000FFF78DFD07A8FFF79EFD0821684681838F
:1006D000032181774821C17707A90920C006FFF7C8
:1006E00031FD01210804FFF769FE01A800F054F96B
:1006F000019400200290039004900C20059001A921
:10070000094800F05DF801221102074800F041F8A5
:1007100001221146044800F03CF801210248FFF78D
:1007200097FF08B010BD00000038014010B5024628
:100730000020102904D1136810242340180927E051
:10074000202904D1136820242340580920E040299F
:1007500004D1136840242340980919E0802904D16A
:10076000136880242340D80912E0FF230133994203
:1007700003D11368D807C00F0AE0012908D1136814
:100780000E242340002B01D0012300E00023184653
:1007900010BD012909D1002A03D043690B434361ED
:1007A0000CE043698B43436108E0002A03D0C3682F
:1007B0000B43C36002E0C3688B43C3607047000013
:1007C000FEB504460D460026E06803214902884331
:1007D00003225202E96811400843E060E068012109
:1007E0000903884301221203696811400843E0604D
:1007F000E0680C2188430C22296911400843E0601D
:100800002069910288439202A9681140084320613F
:100810006846FFF7E3FD0E48844202D00D4884424B
:1008200000D1029EA068000D0005A0603009296873
:10083000FFF760FC0001A1680843A060304629680A
:10084000FFF758FC0007000FA1680843A060FEBD39
:10085000003801400044004088B0E120C002FFF7AA
:1008600005FF0021294801710121294801711E203D
:1008700000F062F800210846FFF764FD0021012026
:10088000FFF760FD40E02148007900283CD01F4878
:100890004088204908801D484079002821D11B4804
:1008A000418801AAFF38013800F080F8002818D0EC
:1008B0006846808B184908806846807F1749087011
:1008C00001201749087017480068401C1549086046
:1008D00001210020FFF736FD00210120FFF732FD46
:1008E0000FE000200E4908700F480068401C0E49B8
:1008F000086000210846FFF725FD01210846FFF7A3
:1009000021FD1E2000F018F8BDE700003001002096
:100910003602002004000020000000200200002019
:1009200003000020080000200C0000200146486859
:10093000C005C00D7047000070B50446FF2C00D9FB
:10094000FF24002504E0002010494855681C85B2AA
:10095000A542F8DB0E4804800021418001714171FD
:100960000C48FFF7E3FF20210A48FFF76EFE202125
:100970000848FFF767FE012220210648FFF709FF1C
:10098000012210210348FFF704FF70BD3000002052
:1009900030010020003801404B21C90101600021D5
:1009A00041608160C1600C210161704770B50446EF
:1009B0000E461546002C01D0002D01D1002070BD3F
:1009C0001B2E01D00020FAE720785A2805D1607844
:1009D0008E2802D1A078172801D00020EFE71A2135
:1009E000204600F0A1F8A17E884201D00020E6E771
:1009F000E01C00F07EF82880601D00F07AF8688026
:100A0000E01D00F07CF8686020460A3000F071F8C4
:100A1000288120460C3000F06CF8688120460E30AA
:100A200000F06DF8E8602046113000F062F828828E
:100A30002046133000F06CF868612046173000F053
:100A400058F800B22883607EA8760120B7E700003E
:100A500010B5002819DB1A4A03231B02D218830899
:100A60009B00D2588307DC0EFF23A3409A438B07D9
:100A70001B0E8407E40EA3401A43114B03242402E7
:100A80001B198408A4001A5118E00E4A03071B0F13
:100A9000083B9B089B00D2588307DC0EFF23A34032
:100AA0009A438B071B0E8407E40EA3401A43054BA1
:100AB0000407240F083CA408A4001A5110BD00002C
:100AC00000E100E01CED00E002E008C8121F08C1D0
:100AD000002AFAD170477047002001E001C1121FBF
:100AE000002AFBD17047FFF7D3FBFFF7B5FE00BF2D
:100AF000FEE7014608784A78120210437047014623
:100B000008784A78120210438A781204104370471A
:100B1000014608784A78120210438A78120410437A
:100B2000CA7812061043704710B502460B460024DF
:100B3000002103E0505C0419481C81B29942F9DBA2
:100B4000E0B210BD640B000800000020300000007F
:100B5000C80A0008940B00083000002010040000B0
:100B6000D80A00080000000000000000000000009B
:100B70000000000000000000000000000000000075
:100B80000102030406070809000000000102030433
:040B9000006CDC0217
:04000005080000C12E
:00000001FF
