:020000040800F2
:1000000030040020D90000083F0700083B07000823
:1000100000000000000000000000000000000000E0
:10002000000000000000000000000000A50900081A
:100030000000000000000000DB0800086D0A000856
:10004000EB000008EB00000800000000EB000008D7
:10005000EB000008EB000008EB000008EB000008D4
:100060000000000000000000000000000000000090
:10007000EB000008EB000008EB00000800000000A7
:10008000EB0000080000000000000000EB0000088A
:10009000000000000000000000000000EB0000086D
:1000A00000000000EB00000800000000EB0000086A
:1000B000C50A000800000000000000000000000069
:1000C0000448854600F084FA00480047C11800083B
:1000D000C046C0463004002004488047044800471A
:1000E000FEE7FEE7FEE7FEE7FEE7FEE7850A00081B
:1000F000C100000830B50B46014600202022012433
:1001000009E00D46D5409D4205D31D469540491B4B
:100110002546954040191546521E002DF1DC30BD94
:10012000F0B50C465C4085B0E40FE40703944C0046
:100130000026640859009446490802460296224364
:1001400021D062460A431ED06200570D4A000E03BA
:100150002303550D012402462C492405781B1B0B53
:10016000360B401823432643614600901C46501A24
:10017000B44103D30098401C009002E0921800980C
:100180005B41002803DA0020014605B0F0BD0020E5
:10019000012109050746864611E064461D46141BE9
:1001A000B54106D36546521BB341744607430C4321
:1001B000A646CD0740084908284392185B410546EA
:1001C0000D43EAD11046184313D0604619465040FB
:1001D0007140084306D06046101AB34106D201228E
:1001E000002306E000220123DB0702E00122D243C4
:1001F0005310009874460105381C6141029C039D10
:100200000019694100F034F8BFE70000FD03000069
:10021000F0B51FB40646002082B005464024019187
:1002200000901BE0019922460F46304600F0F2F99B
:10023000049A059B801A994110D31046194622460C
:1002400000F0D8F9361A8F4101972246012000218B
:10025000009F00F0CFF938184D4100902046641EF1
:100260000028DFDC019B00982946324607B0F0BD2C
:1002700010B5002B08DA0024401C614192185B4144
:100280001A4301D14008400010BDF0B51FB482B040
:1002900005460C0003D0084600F044FE02E000F0E2
:1002A00041FE2030024600902146284600F0A2F987
:1002B000049B059A04460F4618431143084314D083
:1002C000184610431BD0009840210A1A1846059979
:1002D00000F0A0F905460E46009A0599049800F032
:1002E00089F9084305D0012004E02046394607B0CB
:1002F000F0BD0020C11705430E432C43374300993E
:100300000E986305401A7905E40A00220C43FD0AA1
:100310000A3002D500200146E9E7010510196941BC
:100320000C9C0D9D00196941FFF7A2FFDFE700005B
:10033000F0B507460846584087B0C00F0490480003
:100340000E46590040084908BC1A884105D2384673
:1003500031461E4617460B460246580040081043D9
:100360004DD0300D039040055900400D490D0590CA
:10037000401A0290402873DA18030121000B090586
:100380000843019004980092002806D01146019A73
:1003900049420020904100910190029840210A1AA0
:1003A0000199009800F026F905460C466B4607CBEC
:1003B00000F041F9C0197141039A0E0D0023D717BF
:1003C00056401A467A40164344D0049A002A2DD04B
:1003D000029A012A039A15DC1205C01A91410126DE
:1003E0003605001C7141D20F059ED2070093019281
:1003F00002962A462346FFF748FF07B0F0BD38466D
:100400003146FAE71605234A0F46B218C01AB7411B
:1004100001210905001C4F4100187F4111461818A1
:100420007941E20F10436D19644113E0E2076D0852
:1004300015436408C2071443039A01261205C01A23
:1004400091413605001C7141CE07400830434908F0
:10045000C01851412A462346FFF70AFFCDE7FFE7C0
:10046000049801224000C117121A00238B410498FE
:100470003146C417381AA141EEE730B40124E4072D
:10048000634030BC54E730B40124E407614030BC21
:100490004EE700000000E0FFF0B51FB488B00B99F4
:1004A0000998002448400999C00F4900490809915A
:1004B000C0070B990090490049080B9109990898C9
:1004C000A64608431CD00B990A98084318D00998EF
:1004D00001244000420D4800410D09982405000305
:1004E000000B204309900B980003000B20430B9056
:1004F00050181C494018002201901446104605E08F
:10050000002001460DB0F0BD032801DA034600E0EB
:1005100003239C46C11A0AAE0AE05F0008ADED5BFA
:100520004F00F75B7D430027AA187C41491C5B1EE6
:100530006145F2DD410004AB5A522104120C0A431A
:10054000240C401C0828DFDB0198029000997046BB
:1005500001910090059B049A07990698FFF795FE74
:10056000D0E700000DFCFFFF4A0009030123090B3F
:100570001B0519430A4B10B5520D9A4202DA0020AE
:10058000014610BD064B34339A4203DC9A1A00F040
:1005900041F810BD034BD21800F02CF810BD00003C
:1005A000FF030000CDFBFFFF10B5002904DB012491
:1005B000E40740428C412146002B04DB1C4601230A
:1005C000DB075242A341994200D1904210BD000086
:1005D000064C0125064E05E0E36807CC2B430C3C96
:1005E00098471034B442F7D3FFF76EFDE4180008C3
:1005F0000419000810B5202A04DB0146203A914076
:10060000002010BD914020239C1A0346E34019436B
:10061000904010BD10B5202A04DB0846203AD04097
:10062000002110BD0B46D340D0402024A21A914097
:100630000843194610BD10B5202A06DBCB17084623
:10064000203A1041C1170B4306E00B461341D0403E
:100650002024A21A91400843194610BDF8B502465D
:10066000CD782F073F0FCD7810263540002D01D0D3
:100670008D782F431446002011E085062B0E0D883F
:10068000012686403540002D07D025680F269E4064
:10069000B5433E469E4035432560451CE8B20828D8
:1006A000EBDB141D0D882D120095002011E085064E
:1006B0002B0E01258540009E3540002D07D0256872
:1006C0000F269E40B5433E469E4035432560451C5F
:1006D000E8B20828EBDBCD78282D04D155690E88C7
:1006E0003543556106E0CD78482D03D115690E8854
:1006F00035431561F8BD70B54D07EB0E082902DAD8
:100700000546203501E0054624352C460F269E403F
:100710002568B54316469E403543256070BD0021CF
:10072000C9430180032181700421C1707047002AF0
:1007300001D0016100E04161704700BFFEE77047F2
:100740008178002925D017490322120289180278DE
:1007500092109200895802789207D30EFF229A4095
:10076000914342789207120E03789B07DB0E9A4062
:1007700011430C4A03231B02D21803789B109B00E1
:10078000D1500178CA06D20E01219140054A11606C
:1007900007E00178CA06D20E01219140014A803259
:1007A0001160704700E100E010B500F003F800F0C0
:1007B0002BF810BD3EB5684600F0B0F87D21C900A9
:1007C0000198FFF797FC0446601E0D49884201D945
:1007D00001200CE0601E0B4948610321081F00F056
:1007E000B9FB002007498861072008610020002824
:1007F00001D000BFFEE70021481E00F0ABFB3EBD6C
:10080000FFFFFF0000E000E008B50121480400F010
:1008100065F80021084600F01FF80021012000F0D3
:100820001BF80021022000F017F80021032000F03F
:1008300013F86846FFF773FF0649684601800321F5
:1008400081701021C17069460920C006FFF706FFBC
:1008500008BD00006084000070B505460C46002D00
:1008600006D0012D11D0022D1CD0032D32D125E050
:10087000012C01D0012000E0002002460121C90323
:100880000920C006FFF753FF25E0012C01D001200D
:1008900000E000200246012189020920C006FFF77E
:1008A00046FF18E0012C01D0012000E000200246A4
:1008B00040210920C006FFF73AFF0CE0012C01D0CF
:1008C000012000E00020024620210920C006FFF799
:1008D0002EFF00E000BF00BF70BD7047002905D0AB
:1008E000054A52690243044B5A6104E0024A5269C4
:1008F0008243014B5A61704700100240002905D025
:10090000054AD2690243044BDA6104E0024AD26923
:100910008243014BDA6170470010024010B500219C
:1009200000221A4B5B680C2423401946002906D08C
:10093000042907D0082908D00C290CD108E0144B51
:1009400003600BE0124B036008E0124B036005E00C
:10095000114B036002E00E4B036000BF00BF0B4B66
:100960005B68F024234019090C4B5A5C0368D340A0
:100970004360064B5B68072424022340190A084B96
:100980005A5C4368D340836010BD000000100240F1
:1009900000127A00006CDC02409C00000400002081
:1009A00014000020704700001CB5002001900120B9
:1009B0000090002428480068012108432649086067
:1009C00000BF25480068022108400028F9D02348CC
:1009D0002349086023480068C008C0002149086016
:1009E00008460068102108431E4908601C49096830
:1009F000481E1D49FFF77EFB0446012C00D9012447
:100A00001848006820431749086013484468F021DB
:100A100020468843044600BF0F48446044680721CD
:100A2000090220468843044600BF0B4844604068E2
:100A30008008800008494860084640680221084351
:100A40000549486000E000BF034840680C210840A9
:100A50000828F8D11CBD000000100240006CDC0228
:100A60001C0000200020024000366E01044800688F
:100A7000002804D002480068401E01490860704701
:100A80000000002010B50D480068012108430B4903
:100A90000860084640680A49084008494860084616
:100AA0000068012109048843044908600020C0430C
:100AB000886000208860FFF777FF10BD00100240BB
:100AC0000CF8FFF810B50024FF2101312B4800F08D
:100AD000D8F8002805D10121284800F0D2F80028D4
:100AE00002D0264800F0CAF92021244800F0C9F8B5
:100AF000002824D0214800F0C1F9C4B22048007970
:100B000000281CD11E4841880088814209DA1C490E
:100B10004888411C8AB21A494A80FF3901390C546D
:100B20000DE0012116484171017100222021134876
:100B300000F0DAF800221021104800F0D5F810215A
:100B40000E4800F09EF8002817D00C4800F096F9E7
:100B50000B480079002810D10948408800280CDD96
:100B600001210748017100222021044800F0BCF84F
:100B700000221021014800F0B7F810BD00440040E9
:100B800024010020CA4302607047CA4302607047D4
:100B9000002905D0C26801235B031A43C26004E048
:100BA000C26801235B039A43C260704710B588B0E6
:100BB00004461C216846017601214176817606A80B
:100BC000FFF7BEFD01214804FFF788FE01218804DC
:100BD000FFF784FE022201210920C006FFF78BFDEA
:100BE000022201212048FFF786FD07A8FFF797FDA5
:100BF000022168468183032181771821C17707A9E3
:100C00000920C006FFF72AFD07A8FFF788FD02218B
:100C100068468183032181774821C17707A912485B
:100C2000FFF71CFD01214804FFF768FE01A800F052
:100C30005FF9019400200290039004900C2005902D
:100C400001A90A4800F066F801221102074800F0E5
:100C50004BF801221146054800F046F801210348EF
:100C6000FFF796FF08B010BD0004004800440040A4
:100C7000024610680840002801D00120704700207B
:100C8000FCE710B502460020102904D11368102497
:100C90002340180927E0202904D113682024234089
:100CA000580920E0402904D11368402423409809C2
:100CB00019E0802904D1136880242340D80912E068
:100CC000FF230133994203D11368D807C00F0AE00C
:100CD000012908D113680E242340002B01D00123E1
:100CE00000E00023184610BD012909D1002A03D0D5
:100CF00043690B4343610CE043698B43436108E064
:100D0000002A03D0C3680B43C36002E0C3688B436F
:100D1000C3607047FEB504460D460026E068032117
:100D20004902884303225202E96811400843E06007
:100D3000E068012109038843012212036968114018
:100D40000843E060E0680C2188430C2229691140C7
:100D50000843E0602069910288439202A96811402B
:100D6000084320616846FFF7D9FD0E48844202D04F
:100D70000D48844200D1029EA068000D0005A060CD
:100D800030092968FFF7B6F90001A1680843A0609F
:100D900030462968FFF7AEF90007000FA168084345
:100DA000A060FEBD0038014000440040E120C002C8
:100DB000FFF7FCFE134914A000F0A4F80021154829
:100DC0000171012114480171402000F05DF813A069
:100DD00000F098F814E00F480079002810D00021A6
:100DE0000C484088194A11540A48418818A000F05C
:100DF00089F816491CA000F085F8402000F044F85E
:100E0000E9E70000CC1800080D0A5465737420252A
:100E100073000000240100202A0200200D0A55530F
:100E2000415254322069646C652072782073746179
:100E300072742C206D6178206672616D65203D2092
:100E400036342062797465730000000024000020AD
:100E50000D0A4672616D6520646F6E652C206C65AD
:100E60006E203D20256400000D0A446174612873E2
:100E70007472293A2025730D0A0000000146486863
:100E8000C005C00D7047000070B50446FF2C00DDA2
:100E9000FF24002504E0002010494855681C85B255
:100EA000A542F8DB0E4804800021418001714171A8
:100EB0000C48FFF7E3FF20210A48FFF766FE2021D8
:100EC0000848FFF75FFE012220210648FFF70CFFCC
:100ED000012210210348FFF707FF70BD2400002006
:100EE0002401002000440040CA05D20D4260704732
:100EF0004B21C9010160002141608160C1600C216A
:100F0000016170470FB410B503A9044B044A02985D
:100F100000F026F910BC08BC04B018479D18000862
:100F2000200000202021020C01D010211046020ACE
:100F300001D010460839020901D01046091F820865
:100F400001D01046891E420801D0881E7047081A39
:100F50007047000010B5002819DB1A4A03231B0252
:100F6000D21883089B00D2588307DC0EFF23A340CE
:100F70009A438B071B0E8407E40EA3401A43114BC0
:100F8000032424021B198408A4001A5118E00E4AF5
:100F900003071B0F083B9B089B00D2588307DC0EFE
:100FA000FF23A3409A438B071B0E8407E40EA34044
:100FB0001A43054B0407240F083CA408A4001A5147
:100FC00010BD000000E100E01CED00E002E008C8F8
:100FD000121F08C1002AFAD170477047002001E0B3
:100FE00001C1121F002AFBD170470000F0B51FB4E9
:100FF00086B00998089A030D0021024314D0514885
:10100000514A1818504305141198012810981AD005
:10101000281A401C00264D4F4D490096019104901E
:10102000002812DA444211E01198012449A3012852
:1010300001D11098C1430698119A84600360C26080
:1010400041600BB0F0BD4042E4E7044621050020BA
:101050003F4A001C51410391029012E0E00707D083
:1010600032463B4601990098FFF716FA019100902D
:1010700032463B4610461946FFF70EFA06460F4623
:101080006410002CEAD10498039B0028029A099965
:10109000089806DAFFF700FA019B009AFFF7FCF9BF
:1010A00005E0FFF73DF8019B009AFFF739F8044689
:1010B0000E460022284BFFF777FA03D80020C043E2
:1010C000014607E00022254B20463146FFF730F964
:1010D000FFF74AFA102409E0002C0ADB0A22002359
:1010E000FFF796F8079B30321A55641E02460A43F2
:1010F000F2D11122641C079B121B1C19119B012B9E
:1011000003D0012308430ED10AE0084304D0112084
:1011100010900020119077E71098151A6D1E0BE0C3
:101120001098824202DD00236D1C03E0824201DA46
:1011300000236D1E002BEED0069811998260C160CD
:1011400030C07EE701FCFFFF104D0000000014409E
:101150000000F03F300000000000F0430000E03FDE
:10116000FFB597B0064600251BE2252876D100245E
:101170002746F749049400E00443761C32780120A6
:10118000203A90400842F7D130782A280ED0022227
:10119000307801463039092916D804990A23594371
:1011A000303940181443761C0490F1E7189802C8AF
:1011B00004911890002904DA0120400304434842B6
:1011C000049002200443761C30782E2814D1042089
:1011D00004437078761C2A2809D11898761C80C898
:1011E000189009E00A214F43303FC719761C307828
:1011F000014630390929F5D930786C2810D006DC41
:101200004C281AD068280ED06A2817D104E0742818
:1012100013D07A2812D110E00120400504430CE0DD
:101220000121090501E0032109050C437178814280
:1012300003D1012000052418761C761C307866281E
:101240000BD013DC58287DD009DC00287BD0452842
:10125000F6D04628F4D047281AD1A9E118E063282F
:1012600035D0642870D0652812D1A1E170286CD0E7
:1012700008DC6728F1D069287DD06E280DD06F2852
:1012800006D1BCE073282ED0752873D0782859D0A9
:101290001A9A199990476D1C82E16002400F02284A
:1012A00009D003280DD00428189801680DD00D60CE
:1012B000001D189074E11898EA1701680D604A60E3
:1012C000F6E7189801680D80F2E70D70F0E71898BE
:1012D0006A4601781172001D18900020507202A811
:1012E0000090012005E0189802C818900020009195
:1012F000C04361070ED5002101E00199491C01910D
:10130000B94213DA8142F8DB019A0099895C00291D
:10131000F3D10BE0002101E00199491C01918142C8
:10132000FADB019A0099895C0029F5D101990498AA
:101330001A9B471A21463846199A00F099FA401923
:10134000019903E051E030E115E050E0451807E075
:10135000009800990078491C00911A9A19999047B1
:101360000198401E0190401CF2D1214638461A9B3C
:10137000199A12E137E00A200021009001916002E1
:10138000410F022907D0189A01CA1892C217944631
:10139000032908D00AE01898C01DC108C90005C972
:1013A0001891944607E000B2C2179446042902D16E
:1013B00040B2C1178C4600226146944506DA0A46BF
:1013C0000021404291418C462D2102E0210504D5A7
:1013D0002B216A461173012103E0E10701D020218E
:1013E000F7E7029156E00A200AE0102008E01020FA
:1013F00000900021042004430191082703E0082005
:101400000021019100906002410F022907D0189A33
:1014100001CA189200229446032908D008E01898BF
:10142000C01DC108C90005C91891944603E080B2E7
:10143000042900D1C0B20021029121072AD53178B8
:101440000D91702906D0009A1021019B4A401A4341
:1014500005D00EE040216A461173012108E0614683
:10146000014306D030216A4611730D995173022150
:101470000291009A0821019B4A401A430AD1614611
:10148000014301D1610705D530216A46117301215D
:101490007F1E02913178582904D02EA10E910DA9FA
:1014A0000D910DE030A1F9E76146019B009AFEF72E
:1014B000AFFE0E9B8C469B5C0D9A521E0D921370D4
:1014C00061460143F0D10D9805A9081A203001901A
:1014D000600703D501200004844300E00127019840
:1014E000874201DD381A00E0002001990090411880
:1014F000029809180498401A0490E00306D4214683
:101500001A9B199A049800F0B3F94519002706E0D0
:1015100003A81A9AC05D199990476D1C7F1C029808
:101520008742F5DBE0030CD521461A9B199A0498F3
:1015300000F09EF9451904E01A9A30201999904755
:101540006D1C0099481E00900029F5DC1FE000008A
:101550000928010030313233343536373839616289
:10156000636465660000000030313233343536374D
:101570003839414243444546000000000D980D991A
:101580000078491C0D911A9A199990476D1C019980
:10159000481E01900029F1DC4DE100F059F9451990
:1015A000761C3078002800D0DFE528461BB0F0BD5F
:1015B000600700D406271898C01DC108C9004868F4
:1015C0000A680831C30FDB071891190001D09CA1EC
:1015D00008E0210501D59BA104E0E10701D09AA113
:1015E00000E09AA14300109130785B0865280CD088
:1015F00006DC452809D046281DD0472841D141E0C6
:10160000662818D067283CD13CE00021112F01DB6F
:10161000112000E0781C0191009008A911A8FFF7A3
:10162000E5FC139905910021119A15927F1C1298DF
:101630000197009150E00120C00703900120019024
:1016400008A9009711A8FFF7D1FC139A14990592E5
:101650000022119B009212981593059A019200297D
:1016600001D0104602E0791C40180190381A01D5CB
:10167000019804E04042401E0090781C0190C01B7D
:10168000029043E0012F00DA01270021112F01DD34
:10169000112000E038460191009008A911A8FFF739
:1016A000A5FC13990591119A0021129815920091A9
:1016B000019721070CD40599B94201DB019900E09B
:1016C0000191012904DD159A491E515C302906D08B
:1016D000B84201DA011D05DA0121029115E00199F4
:1016E000491EEDE7002805DC009941180091019999
:1016F000091A03E0019A411C914200DD0191009911
:10170000401A401C02900120C0070390200706D415
:1017100002990198814202DB0020C0430290002020
:101720006946C87707AF012103980337C907884284
:1017300024D0022011902B201290039800280CDA5C
:10174000404203902D20129007E00A210398FEF7F3
:10175000D1FC30317F1E039039701199481E1190D1
:101760000029F2DC03980028EFD1791E1298087046
:101770003078202108404530BF1E387006A8C01BB5
:10178000C01D039010980078002800D00120019916
:1017900041180298C0170918039809180498401AAC
:1017A000401E0490E00306D421461A9B199A04981F
:1017B00000F05EF8451910980078002803D01A9AB6
:1017C000199990476D1CE00324D521461A9B199A5C
:1017D000049800F04DF845191CE00098002807DB3C
:1017E00000990598884203DD1598405C199901E03D
:1017F000199930201A9A904700986D1C401C00904F
:101800000298401E0290002804D11A9A2E2019999D
:1018100090476D1C0199481E01900029DDDC05E010
:1018200038781A9A7F1C199990476D1C0399481EA5
:1018300003900029F4DC21461A9B199A0498ACE61F
:101840002D0000002B000000200000000000000020
:10185000F8B5044600251E461746880404D405E062
:1018600039462020B0476D1C641EF9D52846F8BDC6
:10187000FFB50446002581B01E46C80301D53027B8
:1018800000E02027880404D505E038460399B047D6
:101890006D1C641EF9D5284605B0F0BD70B5044630
:1018A0000D46E1B20548FFF71FFB00BF402103488A
:1018B000FFF7DEF90028F9D0204670BD0044004053
:1018C000FEF772FFFFF772FA00BFFEE75553415271
:1018D000545F496E746572727570745F53616D7098
:1018E0006C650000041900080000002024000000BE
:1018F000CC0F000828190008240000200C04000068
:10190000DC0F0008000000000000000000000000E4
:101910000102030406070809000000000102030495
:08192000006CDC020000000075
:04000005080000C12E
:00000001FF
